:10000000F3C1000011C200000FC200000DC20000C9
:100010000BC2000009C2000007C2000005C20000B8
:1000200003C2000001C20000FFC10000FDC10000CA
:10003000FBC1000088C60000F7C10000F5C1000048
:10004000F3C100000C942A0DEFC10000EDC10000C7
:10005000EBC100002CC60000E7C10000E5C10000B4
:10006000E3C100000C940F1D0C946E1DDDC1000057
:10007000DBC10000D9C10000D7C10000D5C100001C
:10008000D3C10000D1C10000CFC10000CDC100002C
:100090000C94B71D0C94161EC7C10000C5C100000A
:1000A000C3C10000C1C10000BFC10000BDC100004C
:1000B000BBC10000B9C10000B7C10000B5C100005C
:1000C000B3C10000B1C10000AFC100000C945F1EBD
:1000D0000C94BE1EA9C100000C94071F0C94661F4F
:1000E000A3C10000BA1ABA1AC11AC11AC81AC81A8A
:1000F000CF1ACF1A451B751BAE1BDE1B171C471CE6
:10010000841CB41C0F2EFFE7AF2EF5E1BF2EF02D9F
:1001100008E815E188248A94982C33243394432CDE
:10012000732C52C1809169158F5F80936915D50139
:100130006C900FB6F8940F9280916915815080935E
:1001400069158091691581111AC180917415811109
:1001500033C015C1D8011596ED91FC911697C68153
:10016000D781CE010C960E946E0B7E01B2E0EB0EA1
:10017000F11CC7010E946E0B8E8990917115981722
:1001800010F48093711590E09C01220F331F220F11
:10019000331F220F331F820F931FB70189559A4EC9
:1001A0000E941C0BE091CB15F091CC159E8986899D
:1001B000981710F040926E15F80180818111CACF16
:1001C00080916F15882309F4D4C080916F1588231E
:1001D00009F4CFC0809169158111B1C08091721569
:1001E0009091731501969093731580937215C0903A
:1001F0007215D0907315C114D10489F580919315AF
:1002000090919415209191153091921530939415F9
:1002100020939315909392158093911580916D156D
:100220008F5F80936D15E0919315F0919415808107
:10023000811105C090926B1580926A1510C0E091F3
:100240009315F09194150580F681E02D0680F781D5
:10025000E02D8281938190936B1580936A15809134
:100260006A1590916B15C816D90610F4252C50C04C
:10027000252CE0919315F09194158081811105C092
:1002800090926B1580926A1543C0E0919315F0919E
:1002900094150580F681E02DC681D7818A819B81E6
:1002A000C816D90628F490936B1580936A1530C050
:1002B0007E01F2E0EF0EF11CC7010E946E0B8C89EB
:1002C0009D89892B21F0CE010C960E946E0B8E89A0
:1002D00090917115981710F48093711590E09C011E
:1002E000220F331F220F331F220F331F820F931F42
:1002F000B70189559A4E0E941C0BE091CB15F091E5
:10030000CC159E898689981708F4B3CF272CB1CFD6
:10031000E091CB15F091CC15868990E0FC01EE0FB1
:10032000FF1FEE0FFF1FEE0FFF1F8E0F9F1FFC0121
:10033000E955FA4E8081823008F053C00AC080919E
:100340006F158F5F80936F1580916E15882341F034
:1003500005C080916E15811101C0211070926E153B
:1003600080916F15815080936F1580916F15811169
:1003700031CF80916E15813011F40E944F0C0F9097
:100380000FBE662011F10FB6F8940F92D5011596A5
:10039000ED91FC911697C681D781CE0102960E94FD
:1003A0006E0B8091741581508093741580917E1529
:1003B000815080937E150F900FBE8F89988D0E947B
:1003C000090BCE010E94090B512C80917E158111E1
:1003D000A9CE8091A715823008F4A1CE0E944F0CBF
:1003E0009CCE80916E15BACF11241FBECFEFD1E203
:1003F000DEBFCDBF00E00CBF13E0A0E0B2E0E6EC52
:10040000F9E400E00BBF02C007900D92A233B107E0
:10041000D9F726E1A2E3B3E001C01D92A33AB207E7
:10042000E1F729D10C94E124EBCD8F938FB78F9313
:10043000F89480919F168F5F80939F168091A016ED
:100440008F4F8093A0168091A1168F4F8093A11695
:100450008091A2168F4F8093A2168F918FBF8F919C
:1004600008950FE413E0CAE3D3E06894DD24D2F8E2
:100470006894EE24E1F80F2EF3E0FF2EF02D20E03B
:100480004FEF5FEF60E070E080913F039091400399
:100490000E94DE10AFD480933C0381E090E00E9484
:1004A0007A1360E070E080913F03909140030E94D6
:1004B000460F80913C03833611F3843030F4823050
:1004C00010F5813009F437C0DACF853021F008F417
:1004D00032C08336A1F60FB6F8940F9280913C0398
:1004E00090E0F801938B828B0F900FBE1982E88207
:1004F00020E040E050E0BE01809141039091420332
:100500000E947A0DBCCF0FB6F8940F9280913C03F5
:1005100090E0F801938B828B0F900FBE1982F882C6
:1005200020E040E050E0BE01809141039091420301
:100530000E947A0DA4CF0FB6F8940F9280913C03DD
:1005400090E0F801938B828B0F900FBE1982D882B6
:1005500020E040E050E0BE018091410390914203D1
:100560000E947A0D8CCFEED780933903A12C0F2EE9
:10057000F0ECDF2EF02D0F2EF9E7CF2EF02D0F2E01
:10058000F4E4BF2EF02D912C812C712C612C0F2EB8
:10059000F8EE2F2EF3E03F2E412C512CF02DCFE41E
:1005A000D3E080913903882309F460C080E090E0B3
:1005B000CBD7A20191010E94AB21CA01B9010E94CF
:1005C0004B20162F072FF82EE92E262F372F482FD6
:1005D000592F6A2D7D2D8C2D9B2D0E94FB20882369
:1005E00024F0A12ED02ECF2CBE2C212F302F4F2D1A
:1005F0005E2D692D782D872D962D0E94142088233D
:1006000024F4912E802E7F2C6E2C0FB6F8940F922E
:10061000612F702F8F2D9E2D0E9418207B876A8757
:100620006A2D7D2D8C2D9B2D0E9418207F876E8733
:10063000692D782D872D962D0E941820798B688B37
:100640002A2D3D2D4C2D5B2D692D782D872D962D36
:100650000E94B01F20E030E040E05FE30E94FF20F6
:100660000E9418207D876C870F900FBE88EE93E064
:100670000E947A1396CFAF92BF92CF92DF92EF9201
:10068000FF920F931F93CF93DF93CDB7DEB7A2975F
:100690000FB6F894DEBF0FBECDBF40E062E082E04F
:1006A0000E942C0D909342038093410343E060E04D
:1006B00081E00E942C0D9093400380933F030097AC
:1006C00021F060E070E00E94460F43E060E081E0CE
:1006D0000E942C0D90933E0380933D03009721F0E0
:1006E00060E070E00E94460F0F2EFAE0EF2EF12C32
:1006F000F02D02E310E020E835E240E050E060E059
:10070000CE0101960E94DC1A82E2FE013196ADEC28
:10071000B5E101900D928A95E1F78CE06CD4A12CA3
:10072000B12CC12CD12CE12CF12C02E020E030E0E6
:1007300044E650E060E070E080E394E00E946A12DA
:1007400020E030E044E650E060E070E083EB92E0CF
:100750000E946A1220E030E044E650E060E070E081
:1007600081E392E00E946A1220E030E044E650E02B
:1007700060E070E08DEF95E00E946A120E9418150B
:1007800080E090E0A2960FB6F894DEBF0FBECDBF1A
:10079000DF91CF911F910F91FF90EF90DF90CF905D
:1007A000BF90AF9008950F931F93CF93DF93CDB772
:1007B000DEB728970FB6F894DEBF0FBECDBF60E05E
:1007C00080E0E9D38091490390914A030A9714F499
:1007D00080E3FED303E413E04AE0BE016F5F7F4F86
:1007E000F801868197810E94EE21CE010196F4D313
:1007F0008AE3EED3F801848195810A9714F480E3AB
:10080000E7D303E413E04AE0BE016F5F7F4FF801D6
:10081000848195810E94EE21CE010196DDD38AE389
:10082000D7D3F801828193810A9714F480E3D0D35F
:100830004AE0BE016F5F7F4F809145039091460370
:100840000E94EE21CE010196C7D328960FB6F894E8
:10085000DEBF0FBECDBFDF91CF911F910F910895E5
:10086000CF93DF93CDB7DEB728970FB6F894DEBFEE
:100870000FBECDBF912C00E010E0D12CCD2CBB24BD
:10088000B3940F2EFFE02F2EF2E03F2EF02DAB2C75
:100890000F2EF0E04F2EF2E05F2EF02D0F2EF4E23F
:1008A0006F2EF2E07F2EF02D2D2D4FEF5FEF60E0E9
:1008B00070E080914103909142030E94DE102D2D43
:1008C0004FEF5FEF67E373E0809141039091420344
:1008D0000E94DE1080913703833009F48DC018F434
:1008E000823039F06AC1843009F4FDC0833609F0E2
:1008F00064C180913803811101C0820160D36D2DE4
:100900008D2D49D3D8018C91882309F456C1F80163
:100910008081853209F059C07801FFEFEF1AFF0A94
:10092000D80111968C91893619F0843759F132C06B
:10093000F801828190E0C097FC01EE0FFF1F880F45
:10094000991F880F991F880F991FE80FF91F7801C9
:1009500023E0E20EF11CD80113968C910FB6F894A7
:100960000F92E80FF11DEE0FFF1FE151FD4F4AE01E
:10097000BE016F5F7F4F808191810E94EE210F90B9
:100980000FBE0AC00FB6F8940F920DDF0F900FBE86
:100990009A2C29C0911027C08981882319F18E01D2
:1009A0000F5F1F4FF801808113D3D8016C918DEC3C
:1009B00095E10E94471A8823C1F30F5F1F4FF8018A
:1009C00080818111EFCF9C2C0EC080818A3029F468
:1009D0006A2D8C2DE0D2780106C0F8018081F8D212
:1009E000780101C09C2C87010F5F1F4FD701119622
:1009F0008C9181118CCFE1C080913803811101C0AD
:100A000081016D2D8D2DC7D2DAD2F8018081882326
:100A100009F45FC0D8018C91853209F045C0119668
:100A20008C911197893651F512968C9190E0C09770
:100A3000FC01EE0FFF1F880F991F880F991F880F69
:100A4000991FE80FF91F7801B3E0EB0EF11CD801F4
:100A500013968C910FB6F8940F92E80FF11DEE0FDC
:100A6000FF1FE151FD4F4AE0BE016F5F7F4F808164
:100A700091810E94EE210F900FBE06C07801BFEF5A
:100A8000EB1AFB0A91101EC089818823D1F08E01D8
:100A90000F5F1F4FF80181918F019AD2D8018C917D
:100AA0008111F8CF9C2C0EC0F80180818A3029F486
:100AB0006B2D8C2D70D2780105C0808189D2780190
:100AC00001C09C2C87010F5F1F4FF70181818111AD
:100AD000A1CFFFEF23ED80E3F15020408040E1F70C
:100AE00000C000006AC080913803811101C08301F9
:100AF0006D2D8D2D50D263D2D8018C91882309F4AD
:100B00005CC0F8018081853209F042C0818189365C
:100B100049F5828190E0C097FC01EE0FFF1F880F1E
:100B2000991F880F991F880F991FE80FF91F7801E7
:100B300023E0E20EF11CD80113968C910FB6F894C5
:100B40000F92E80FF11DEE0FFF1FE151FD4F4AE03C
:100B5000BE016F5F7F4F808191810E94EE210F90D7
:100B60000FBE06C07801BFEFEB1AFB0A91101EC042
:100B700089818823D1F08E010F5F1F4FF801819189
:100B80008F0126D2D8018C918111F8CF9C2C0EC0F8
:100B9000F80180818A3029F46B2D8C2DFCD17801ED
:100BA00005C0808115D2780101C09C2C87010F5FA0
:100BB0001F4FF70181818111A4CF60E070E0809127
:100BC0004103909142030E94460F6ECE95E895BD79
:100BD000EEE6F0E090819260908387BD16BC0895A8
:100BE00095E89093B100E0E7F0E090819260908307
:100BF0008093B3001092B200089543E060E081E07A
:100C00002BD790933E0380933D03009721F060E043
:100C100070E00E94460F8DE790E0D8DF8DE790E00E
:100C2000DFDFC3E4D3E000E11EE00F2EFCE3FF2E84
:100C3000F02D20E04FEF5FEF60E070E080913D032A
:100C400090913E030E94DE100FB6F8940F92E0914F
:100C50006303F0916403CF01B8010E9462217F8396
:100C60006E839C01A9E8B8E80E94CF2196958795EC
:100C7000929582958F7089279F7089279D838C8399
:100C80009F010E94CF2196958795929582958F70AE
:100C900089279F708927F89E9001F99E300D1124B5
:100CA000E21BF30BFB83EA830F900FBEC2CF1F92B0
:100CB0000F920FB60F9211240BB60F922F933F9302
:100CC0004F935F936F937F938F939F93AF93BF9354
:100CD000EF93FF938091350390913603089690939C
:100CE00036038093350316BC80913503909136030B
:100CF000883E9340A9F48091630390916403019628
:100D0000909364038093630364E373E080913D03F5
:100D100090913E030E94B310109236031092350357
:100D2000FF91EF91BF91AF919F918F917F916F91C3
:100D30005F914F913F912F910F900BBE0F900FBE7F
:100D40000F901F9018951F920F920FB60F921124BB
:100D50008F939F93809132039091330308969093E1
:100D60003303809332031092B2009F918F910F90C2
:100D70000FBE0F901F901895CF93DF93EAE7F0E036
:100D8000808180688083808180648083808184FF0B
:100D9000FDCF48E060E070E0EAE7F0E0C8E7D0E0CF
:100DA000A9E7B0E0908190649083908194FFFDCF9B
:100DB00088812C9130E0322F2227280F311D620FBD
:100DC000731F415079F7EAE7F0E080818F778083E5
:100DD000CB01959587959595879595958795DF9105
:100DE000CF910895806480937C0087E880937A0097
:100DF000C3CF08950F931F93CF93DF9380E0F2DF6B
:100E0000BBDF853893400CF5CAE0D0E000E010E08D
:100E1000B3DF080F191F2197D9F7C8016AE070E006
:100E20000E9476216233710594F0663E71058CF064
:100E3000623C81E078077CF06A3822E072076CF04F
:100E40006438734064F083E60BC083E609C081E038
:100E500007C082E005C083E003C084E001C085E0F4
:100E6000DF91CF911F910F910895662331F0E2E059
:100E7000F1E090819062908305C0E2E0F1E0908122
:100E80009F7D908341113DC0882334F4E2E0F1E07E
:100E900090819061908305C0E2E0F1E090819F7EB7
:100EA000908386FF06C0E2E0F1E090819860908335
:100EB00005C0E2E0F1E09081977F908385FF02C05A
:100EC000739A01C0739884FF02C0A59A01C0A598C7
:100ED000E2E0F1E090819F7B908395E09A95F1F7B5
:100EE000000090819064908395E09A95F1F700005E
:100EF00090819F7B9083EFE9FFE03197F1F700C08D
:100F0000000083FF06C0E2E0F1E0908190619083F1
:100F100005C0E2E0F1E090819F7E908382FF06C0F1
:100F2000E2E0F1E090819860908305C0E2E0F1E0BA
:100F30009081977F908381FF02C0739A01C073985C
:100F400080FF02C0A59A01C0A598E2E0F1E080818F
:100F50008F7B808385E08A95F1F700008081806433
:100F6000808395E09A95F1F7000080818F7B8083E4
:100F70008FE99FE00197F1F700C00000A59A739AEE
:100F8000808188608083808180618083089540E0D3
:100F900060E06BCF0895CF93DF93D82FC62F82E008
:100FA000F6DFC13009F4D85DDD2331F0C0E084E123
:100FB000EEDFCF5FDC13FBCFDF91CF91089581E0AF
:100FC000E6DF8FED9EE20197F1F700C00000089583
:100FD00040E061E04ACF0895CF93DF93EC01219682
:100FE000FC018081882321F0F3DF89918111FCCFFE
:100FF000DF91CF910895CF93C82FE1E0F1E0808198
:10100000806280838081806480839D9A6B9A8081D6
:10101000886080838081806180832FEF8DEE92E0F5
:10102000215080409040E1F700C00000E2E0F1E094
:1010300080818F7D808380818F7B808341E060E031
:1010400083E013DF8FE19EE40197F1F700C0000019
:1010500041E060E083E009DF8FE99FE00197F1F76D
:1010600000C0000041E060E083E0FFDE8FE99FE028
:101070000197F1F700C0000041E060E082E0F5DE9A
:1010800040E060E088E2F1DE9ADF86E080DF8C2FCE
:101090007EDFCF91089561157105A9F0FC01680FFD
:1010A000791F80E048E1219198E0382F322730FF06
:1010B0000CC084278695806826959150B1F7E61775
:1010C000F70789F7089580E008958695F5CFEF92A8
:1010D000FF920F931F93CF93DF937B01042FBC01EB
:1010E0008EEBDDD1002361F0E701015010E00F5FCE
:1010F0001F4F0E0D1F1D7CD18993C017D107D9F743
:1011000069E070E0C701C7DF811183E0DF91CF9113
:101110001F910F91FF90EF9008950F931F93CF931E
:10112000DF93EC018B01B801888165D18883815000
:101130008D3F50F4F8018081883241F0803141F0D8
:10114000823289F780E005C081E003C080E001C001
:1011500080E0DF91CF911F910F9108951F93CF935E
:10116000DF93182FEB01CFD0A7D0882361F0113087
:1011700029F0BE0184E496D180E00EC0BE0184E473
:101180008ED180E009C08DE492E09F938F930E94FE
:1011900011220F900F9082E0DF91CF911F9108955F
:1011A000EF92FF920F931F93CF93DF93CDB7DEB7EC
:1011B00029970FB6F894DEBF0FBECDBF7C018B011F
:1011C000A2D049E0BE016F5F7F4FC70180DFE82FEB
:1011D000811164C04A8150E0542F44278981482BF3
:1011E000D7018C91803171F44E7F440F551F440F0D
:1011F000551F440F551F2F818CE090E0821B9109F1
:10120000480F591F55236CF55195419551099A0185
:10121000329522952F7023273F702327A0E1B7E254
:101220000E94CF214F705527A1E7B2E04A9F90015D
:101230004B9F300D5A9F300D1124DC01CB01820FE2
:10124000931FA11DB11D44275527BA01481B590BF7
:101250006A0B7B0BD8014D935D936D937C93139731
:101260001DC09A01329522952F7023273F702327A6
:10127000A0E1B7E20E94CF214F705527A1E7B2E06D
:101280004A9F90014B9F300D5A9F300D1124AB01A6
:10129000BC01420F531F611D711DDCCF8E2F29969B
:1012A0000FB6F894DEBF0FBECDBFDF91CF911F9177
:1012B0000F91FF90EF9008958FB1807808958F9AE5
:1012C000879A0895CF93C82FF894879A8AE08A95D1
:1012D000F1F700C0C111879885E48A95F1F7000005
:1012E0008FB1880F880BC82385EE8A95F1F700002F
:1012F00087986111E4DF85E38A95F1F7000078941F
:101300008C2FCF9108958F98879A8FE797E0019758
:10131000F1F700C00000F8948798EFEFF0E0319704
:10132000F1F700C000008FB1EFE7F6E03197F1F779
:1013300000C000007F9B02C0807801C081E07894EB
:10134000089560E08170BECF0895CF93DF93C82FDA
:10135000D8E08C2F8170F5DFC6958111C068D1501F
:10136000C1F78C2FDF91CF910895CF93DF93C82FD2
:10137000D8E0D13041F060E08C2F8170A3DFC695BA
:10138000811108C008C061E08C2F81709BDFC69579
:10139000882319F0C068D15061F78C2FDF91CF916D
:1013A0000895EF92FF920F931F93CF93DF93E82E50
:1013B000EB01F42EA8DF209759F085E5C6DF8E01FA
:1013C000085F1F4F8991C1DFC017D107D9F702C04D
:1013D0008CECBBDFFF2019F08E2DC7DF02C08E2DF5
:1013E000B4DFDF91CF911F910F91FF90EF9008959F
:1013F0008FEFABCF0895DF92EF92FF920F931F9381
:10140000CF93DF93D82E8B017EDF811128C080EF30
:101410009CDFE12CC0E40F2EF8EFFF2EF02DFC0E28
:1014200081E08FDFD82F81E08CDF882319F0DD2366
:10143000D1F017C0D11123C0CD15E0F0F8018081A3
:1014400080FF11C0CD1119C00EC0C150FC12E8CFF1
:101450000F5F1F4FCF2DF110DECF8E2D18C08FEFF5
:1014600016C08EEF14C080E06CDFF8019081969575
:101470009083EBCFEC2ED1E002C0EC2ED1E08D2F8B
:1014800060DFF8019081969590689083DECFDF91C0
:10149000CF911F910F91FF90EF90DF90089540E062
:1014A00080CF089541E07DCF0895CF92DF92FF92E3
:1014B0000F931F93CF93DF93CDB7DEB729970FB666
:1014C000F894DEBF0FBECDBF2FEF89EB9BED21500F
:1014D00080409040E1F700C0000015DF8FEF898762
:1014E0000F2EFFEECF2EF5E1DF2EF02DF12C8E0129
:1014F000075F1F4FBE016F5F7F4FC8010EDE9985EA
:101500009F3F89F0FE013196D60181918D93E017BE
:10151000F107D9F7F394992331F028E0C20ED11CDA
:1015200088E0F812E7CF8F2D29960FB6F894DEBF2A
:101530000FBECDBFDF91CF911F910F91FF90DF9034
:10154000CF900895B2CF08950F931F93CF93DF9359
:1015500000D01F92CDB7DEB78C0160E070E080E074
:10156000FDDD2FEF8EE994E2215080409040E1F7BD
:1015700000C00000C801880F991F880F991F880FAD
:10158000991FBE016F5F7F4F81519A4E09DE6981BD
:101590007A818B819C810F900F900F900F90DF913B
:1015A000CF911F910F910895CF93DF93EC010E948B
:1015B00006168091650390916603892B31F48AE6C3
:1015C00093E09093660380936503209167033091C5
:1015D0006803C9018C0F9D1F8F3F41E1940770F490
:1015E0002817390770F4C0916503D0916603C20FC4
:1015F000D31F909368038093670305C0C0E0D0E0D9
:1016000002C0C0E0D0E00E940C16CE01DF91CF9165
:1016100008950895FC010396928381832FEF3FEF95
:1016200034832383968385839087878310820895EC
:10163000FC01118610860895CF93DF939C01FB0176
:10164000DC011196CD91DC911297D383C2838C81FA
:101650009D81958384838C819D81DC0113967C938D
:101660006E9312977D836C8331872087F901808187
:101670008F5F8083DF91CF910895CF93DF93EB014C
:10168000488159814F3F2FEF520721F4FC01A78178
:10169000B0850DC0DC01139601C0DF011296ED91FB
:1016A000FC9113972081318142175307B0F71296AE
:1016B000ED91FC911397FB83EA83D583C483BD83AB
:1016C000AC831396DC93CE93129799878887FC019D
:1016D00020812F5F2083DF91CF910895CF93DF93F7
:1016E000FC01A085B185C281D381848195819D83D0
:1016F0008C83C481D581828193819B838A83119657
:101700008D919C911297E817F90731F484819581A6
:1017100012969C938E931197118610868C9181500E
:101720008C93DF91CF91089531E1FC0130833197A3
:1017300022E220833197A3E3A0833197608331971E
:1017400070833197108231971082319760E86083FF
:10175000319710823197108231971082319762E071
:101760006083319763E06083319764E060833197F1
:1017700065E06083319766E06083319767E060835E
:10178000319768E06083319769E06083319760E169
:10179000608331973083319732E13083319733E181
:1017A0003083319734E13083319735E1308331979D
:1017B00036E13083319737E13083319738E1308338
:1017C000319739E13083319730E23083319731E21C
:1017D000308331972083319723E2208331974083F0
:1017E00031975083319726E22083319727E2208377
:1017F000319728E22083319729E22083319720E333
:101800002083319721E320838997089588EC90E025
:101810009093301680932F16909332168093311642
:1018200084E08093890081EE809388008BE0809330
:101830008100EFE6F0E0808182608083A091CB158B
:10184000B091CC15CD91CDBFDD91DEBFFF91EF9171
:10185000DF91CF91BF91AF919F918F917F916F91C8
:101860005F914F913F912F911F910F91FF90EF90BA
:10187000DF90CF90BF90AF909F908F907F906F90B0
:101880005F904F903F902F901F900F900CBE0F9045
:101890000BBE0F900FBE0F90089581E008950F9238
:1018A0000FB6F8940F920BB60F920CB60F921F92D0
:1018B00011242F923F924F925F926F927F928F925C
:1018C0009F92AF92BF92CF92DF92EF92FF920F93CF
:1018D0001F932F933F934F935F936F937F938F93B8
:1018E0009F93AF93BF93CF93DF93EF93FF93A09119
:1018F000CB15B091CC150DB60D920EB60D920E947F
:101900003918A091CB15B091CC15CD91CDBFDD91FB
:10191000DEBFFF91EF91DF91CF91BF91AF919F918A
:101920008F917F916F915F914F913F912F911F9177
:101930000F91FF90EF90DF90CF90BF90AF909F906E
:101940008F907F906F905F904F903F902F901F905F
:101950000F900CBE0F900BBE0F900FBE0F9008950E
:101960000F920FB6F8940F920BB60F920CB60F921F
:101970001F9211242F923F924F925F926F927F920B
:101980008F929F92AF92BF92CF92DF92EF92FF928F
:101990000F931F932F933F934F935F936F937F9377
:1019A0008F939F93AF93BF93CF93DF93EF93FF9367
:1019B000A091CB15B091CC150DB60D920EB60D922F
:1019C00013BE809131169091321601979093321682
:1019D00080933116892B51F40E94150280912F16A5
:1019E0009091301690933216809331160E946017B2
:1019F00081110E943918A091CB15B091CC15CD91D1
:101A0000CDBFDD91DEBFFF91EF91DF91CF91BF910F
:101A1000AF919F918F917F916F915F914F913F9186
:101A20002F911F910F91FF90EF90DF90CF90BF907B
:101A3000AF909F908F907F906F905F904F903F906E
:101A40002F901F900F900CBE0F900BBE0F900FBEEB
:101A50000F90089585DF18950F931F93CF93DF9311
:101A6000082F162F662309F438C0869FC001112461
:101A700080969ADDEC01009721F436C0D983C883A3
:101A800003C04F96998388830B8F1C8F0FB6F894F1
:101A90000F92488159812C8D30E06B8D629FC0017F
:101AA000639F900D1124BA01680F791F7B836A83AD
:101AB0001A8E5D834C83821B930B840F951F9F832B
:101AC0008E838FEF8D8F8E8FCE010896A3DDCE0192
:101AD0004196A0DD0F900FBE07C08FE190E064DD5E
:101AE000EC01892B09F0CACFCE01DF91CF911F9174
:101AF0000F9108956F927F928F929F92AF92BF92B3
:101B0000CF92DF92EF92FF920F931F93CF93DF93C9
:101B100000D01F921F92CDB7DEB78C015B015D83B1
:101B20004C83722E812C6624639499249A947C01B0
:101B300088E0E80EF11C6801E1E1CE0ED11C0FB681
:101B4000F8940F92F801928D838D981720F0F2E0AF
:101B50007F126EC079C1F801448D411115C0F801A2
:101B600080819181892B09F075C1828193810E94C6
:101B7000F519F80113821282928D9F5F928F9189DD
:101B8000992309F44FC046C071101AC050E0B50146
:101B9000F801848195810E94DE21F801248D8481E1
:101BA0009581820F911D95838483228133818217D1
:101BB000930708F44FC180819181958384834AC142
:101BC00050E0B501F801868197810E94DE21F8017D
:101BD000848D90E091958195910926813781280F18
:101BE000391F37832683408151812417350730F40C
:101BF00022813381820F931F97838683F2E07F12C5
:101C000029C1F801828D882309F424C1828D815075
:101C1000828F20C1C80141960E940119813021F4B0
:101C20003EDE02C081113BDE0F900FBE81E01AC183
:101C30008C819D81892B21F40F900FBE80E012C111
:101C4000811005C0CE0101960E944919862C0F9083
:101C50000FBEDCD70FB6F8940F92F801858D8F3F39
:101C600009F4158EF801868D8F3F09F4168E0F90BA
:101C70000FBEBE016C5F7F4FCE0101960E945419CA
:101C8000811194C00FB6F8940F92F801928D838D54
:101C90000F900FBE981349C06C817D81C7010E94CF
:101CA000A6180FB6F8940F92F801868D1816ACF4AA
:101CB0008189811105C011C0F8018189882369F0EB
:101CC000C6010E94011981110E948F19F801868DA9
:101CD0008150868F868D18167CF3F801968E0F90B2
:101CE0000FBE0FB6F8940F92858D1816ACF4808550
:101CF000811105C011C0F8018085882369F0C701F2
:101D00000E94011981110E948F19F801858D81505F
:101D1000858F858D18167CF3F801958E0F900FBE78
:101D20007BD781110CCFBBDD0ACF0FB6F8940F9291
:101D3000F801868D1816ACF48189811105C011C097
:101D4000F8018189882369F0C6010E940119811177
:101D50000E948F19F801868D8150868F868D181606
:101D60007CF3F801968E0F900FBE0FB6F8940F9289
:101D7000858D1816ACF48085811105C011C0F8015D
:101D80008085882369F0C7010E94011981110E9492
:101D90008F19F801858D8150858F858D18167CF3FC
:101DA000F801958E0F900FBE37D7C9CE0FB6F894B5
:101DB0000F92F801868D1816D4F48189811106C01E
:101DC00016C0F8018189811105C011C07801F1E1C7
:101DD000EF0EF11CC7010E94011981110E948F1999
:101DE000F801868D8150868F868D181654F38FEFFB
:101DF000F801868F0F900FBE0FB6F8940F92858D65
:101E00001816D4F48085811106C016C0F8018085AB
:101E1000811105C011C07801F8E0EF0EF11CC70177
:101E20000E94011981110E948F19F801858D81503E
:101E3000858F858D181654F38FEFF801858F0F90DD
:101E40000FBEEAD680E00EC0F801448D442309F4A9
:101E500086CEB6CEF801828D8F5F828F8189811107
:101E6000D9CEE2CE0F900F900F900F900F90DF9190
:101E7000CF911F910F91FF90EF90DF90CF90BF9087
:101E8000AF909F908F907F906F9008959F92AF92A8
:101E9000BF92CF92DF92EF92FF920F931F93CF9357
:101EA000DF9300D01F921F92CDB7DEB78C017D83E8
:101EB0006C83A12C99249394BB24BA947C0188E070
:101EC000E80EF11C6801E1E1CE0ED11C0FB6F894CA
:101ED0000F92F801928D838D981700F58081918182
:101EE000892B09F027C1828193810E94F519F8019D
:101EF00013821282928D9F5F928F9189992341F074
:101F0000C80141960E940119813021F4C8DC02C049
:101F10008111C5DC0F900FBE81E014C18C819D81C1
:101F2000892B21F40F900FBE80E00CC1A11005C0D9
:101F3000CE0101960E944919A92C0F900FBE66D6BA
:101F40000FB6F8940F92F801858D8F3F09F4158E26
:101F5000F801868D8F3F09F4168E0F900FBEBE01DB
:101F60006C5F7F4FCE0101960E945419811194C07D
:101F70000FB6F8940F92F801928D838D0F900FBEDB
:101F8000981349C06C817D81C7010E94A6180FB6C5
:101F9000F8940F92F801868D1816ACF4818981119E
:101FA00005C011C0F8018189882369F0C6010E942B
:101FB000011981110E948F19F801868D8150868F39
:101FC000868D18167CF3F801B68E0F900FBE0FB6F3
:101FD000F8940F92858D1816ACF48085811105C098
:101FE00011C0F8018085882369F0C7010E9401199A
:101FF00081110E948F19F801858D8150858F858D03
:1020000018167CF3F801B58E0F900FBE05D681111E
:102010005DCF45DC5BCF0FB6F8940F92F801868D4B
:102020001816ACF48189811105C011C0F8018189AD
:10203000882369F0C6010E94011981110E948F193D
:10204000F801868D8150868F868D18167CF3F801F5
:10205000B68E0F900FBE0FB6F8940F92858D18169E
:10206000ACF48085811105C011C0F80180858823FA
:1020700069F0C7010E94011981110E948F19F801AE
:10208000858D8150858F858D18167CF3F801B58E6E
:102090000F900FBEC1D51ACF0FB6F8940F92F8016A
:1020A000868D1816D4F48189811106C016C0F801F6
:1020B0008189811105C011C07801F1E1EF0EF11C99
:1020C000C7010E94011981110E948F19F801868DA4
:1020D0008150868F868D181654F38FEFF801868F06
:1020E0000F900FBE0FB6F8940F92858D1816D4F48A
:1020F0008085811106C016C0F8018085811105C058
:1021000011C07801F8E0EF0EF11CC7010E9401191F
:1021100081110E948F19F801858D8150858F858DE1
:10212000181654F38FEFF801858F0F900FBE74D5FA
:1021300080E008C0F801828D8F5F828F81898111D4
:10214000DFCEE8CE0F900F900F900F900F90DF91A1
:10215000CF911F910F91FF90EF90DF90CF90BF90A4
:10216000AF909F900895CF93DF93FC01928D838D64
:102170009817D0F4828D8F5F828F868D8F3F79F490
:102180008189882399F0EB01CF0141960E940119C2
:10219000882371F0209771F081E088830CC0868DD0
:1021A0008F5F868F81E007C080E005C081E003C0BB
:1021B00081E001C081E0DF91CF9108956F927F921D
:1021C0008F929F92AF92BF92CF92DF92EF92FF9247
:1021D0000F931F93CF93DF9300D01F921F92CDB721
:1021E000DEB78C015B015D834C83622E812C7724EA
:1021F000739499249A946C0188E0C80ED11C7801DC
:10220000E1E1EE0EF11C0FB6F8940F92F801828D09
:10221000882309F443C0E680F780448D4423A9F065
:1022200050E0C701840F951F9783868322813381F5
:102230008217930720F08081918197838683F8012C
:1022400066817781C5010E94DE21611018C0F80106
:10225000828D8150828F80819181892B29F40E9407
:10226000351AF80193838283F8018085882391F0E1
:10227000C8010896C6D7813069F411DB0BC0F8019C
:10228000F782E6828189882329F0C8014196B9D76F
:10229000811105DB0F900FBE81E008C18C819D810B
:1022A000892B21F40F900FBE80E000C1811004C083
:1022B000CE010196EED7872C0F900FBEA7D40FB694
:1022C000F8940F92F801858D8F3F09F4158EF8016F
:1022D000868D8F3F09F4168E0F900FBEBE016C5F86
:1022E0007F4FCE010196E0D7811197C00FB6F894C9
:1022F0000F92F801828D0F900FBE811151C0808125
:102300009181892B49F40FB6F8940F9282819381C1
:102310000E9493190F900FBE6C817D81C70116D763
:102320000FB6F8940F92F801868D18169CF48189E7
:10233000811105C00FC0F8018189882359F0C701B8
:1023400060D78111ECD7F801868D8150868F868DFC
:1023500018168CF3F801968E0F900FBE0FB6F894F6
:102360000F92858D18169CF48085811105C00FC0D1
:10237000F8018085882359F0C60143D78111CFD752
:10238000F801858D8150858F858D18168CF3F801A5
:10239000958E0F900FBE40D4811135CF80DA33CFA8
:1023A0000FB6F8940F92F801868D18169CF4818967
:1023B000811105C00FC0F8018189882359F0C70138
:1023C00020D78111ACD7F801868D8150868F868DFC
:1023D00018168CF3F801968E0F900FBE0FB6F89476
:1023E0000F92858D18169CF48085811105C00FC051
:1023F000F8018085882359F0C60103D781118FD752
:10240000F801858D8150858F858D18168CF3F80124
:10241000958E0F900FBE00D4F6CE0FB6F8940F92A3
:10242000F801868D1816C4F48189811106C014C084
:10243000F8018189811105C00FC07801F1E1EF0E2B
:10244000F11CC701DED681116AD7F801868D815053
:10245000868F868D181664F38FEFF801868F0F90A4
:102460000FBE0FB6F8940F92858D1816C4F48085B0
:10247000811106C014C0F8018085811105C00FC00C
:102480007801F8E0EF0EF11CC701BBD6811147D7E8
:10249000F801858D8150858F858D181664F38FEF37
:1024A000F801858F0F900FBEB7D380E00F900F908B
:1024B0000F900F900F90DF91CF911F910F91FF9090
:1024C000EF90DF90CF90BF90AF909F908F907F90D4
:1024D0006F9008954F925F926F927F928F929F922A
:1024E000AF92BF92CF92DF92EF92FF920F931F9322
:1024F000CF93DF934C01EB015A012901C114D104A0
:1025000031F4CA0151D86C01892B09F4E1C088E289
:1025100090E04AD83C010097B9F0FC01D08EC78A00
:10252000A50165EA70E0C6010E94E721F1E0AF1A5B
:10253000B108F3018789908DA80EB91E8881818F1B
:102540008881811104C013C0C60163D8C1C0D30102
:102550005A96FE0131969E01285F3F4FEF0181910F
:102560008D938881882319F02E173F07B9F7F3015F
:1025700010A2102F043008F013E0F301168B11A302
:1025800012A2E3012296CE0153D8C3010C9650D873
:10259000F3017186608684E090E0811B9109958744
:1025A0008487738A628A13A214A215A216A217A2A4
:1025B000A201B401C501B8D8F30191838083E1146D
:1025C000F10419F0F701718260820FB6F8940F924E
:1025D000809174158F5F809374158091CB159091C5
:1025E000CC15892BB1F57092CC156092CB158091EA
:1025F0007415813009F03CC087EA95E10BD880EB77
:1026000095E108D889EB95E105D882EC95E102D8EF
:102610008EE995E10E940A0B85E995E10E940A0B7B
:1026200088E895E10E940A0B8FE795E10E940A0B6A
:1026300085E795E10E940A0B8EE995E19093941548
:102640008093931585E995E1909392158093911568
:102650000FC08091701581110BC0E091CB15F091E6
:10266000CC158689081720F07092CC156092CB1596
:1026700080916C158F5F80936C15F3018689909122
:102680007115981710F48093711590E09C01220F3A
:10269000331F220F331F220F331F820F931FBE01E0
:1026A00089559A4E0E941C0B0F900FBE8091701599
:1026B000882351F0E091CB15F091CC1586898017D5
:1026C00028F4EDD881E005C081E003C081E001C0BD
:1026D0008FEFDF91CF911F910F91FF90EF90DF90DF
:1026E000CF90BF90AF909F908F907F906F905F90B2
:1026F0004F9008959F92AF92BF92CF92DF92EF9248
:10270000FF920F931F93CF93DF93009709F47EC13D
:10271000209169152F5F20936915C0917215D09192
:102720007315C80FD91F8091CB159091CC150296C7
:102730000E946E0BE091CB15F091CC15D383C28330
:102740008091721590917315C817D90768F460913C
:10275000CB157091CC1580919115909192156E5F6B
:102760007F4F0E943D0B17C06091CB157091CC1527
:1027700080919315909194156E5F7F4F0E943D0B51
:1027800080916A1590916B15C817D90720F4D093E2
:102790006B15C0936A150FB6F8940F928091691566
:1027A00081508093691580916915811128C18091AC
:1027B0007415811133C026C1D7011596ED91FC9196
:1027C0001697C681D781CE010C960E946E0B8E01A2
:1027D0000E5F1F4FC8010E946E0B8E89909171157C
:1027E000981710F48093711590E09C01220F331F0D
:1027F000220F331F220F331F820F931FB8018955F9
:102800009A4E0E941C0BE091CB15F091CC159E893D
:102810008689981758F0D0926E1508C00F2EF8E8E8
:10282000EF2EF5E1FF2EF02DDD24D394F70180810A
:102830008111C2CF80916F15882309F4D8C080918F
:102840006F15882309F4D3C0912CBB24B394CC24F6
:10285000CA94DC2C809169158111AFC080917215EA
:102860009091731501969093731580937215E09073
:102870007215F0907315E114F10489F580919315A8
:102880009091941520919115309192153093941553
:1028900020939315909392158093911580916D15C7
:1028A0008F5F80936D15E0919315F0919415808161
:1028B000811105C0D0926B15C0926A1510C0E091CD
:1028C0009315F09194150580F681E02D0680F7812F
:1028D000E02D8281938190936B1580936A1580918E
:1028E0006A1590916B15E816F90610F4A92C4FC0E3
:1028F000A92CE0919315F09194158081811105C068
:10290000D0926B15C0926A1542C0E0919315F09178
:1029100094150580F681E02DC681D7818A819B813F
:10292000E816F90628F490936B1580936A152FC06A
:102930008E010E5F1F4FC8010E946E0B8C899D890E
:10294000892B21F0CE010C960E946E0B8E899091FE
:102950007115981710F48093711590E09C01220F67
:10296000331F220F331F220F331F820F931FB80113
:1029700089559A4E0E941C0BE091CB15F091CC1515
:102980009E898689981708F4B4CFAB2CB2CFE0911A
:10299000CB15F091CC15868990E0FC01EE0FFF1F5E
:1029A000EE0FFF1FEE0FFF1F8E0F9F1FFC01E9555B
:1029B000FA4E8081823068F50AC080916F158F5F72
:1029C00080936F1580916E15882341F005C080912A
:1029D0006E15811101C0A110B0926E1580916F1516
:1029E000815080936F1580916F15811133CF809145
:1029F0006E15813031F40E944F0C81E003C080E0FD
:102A000001C080E00F900FBE811106C00E944F0CE4
:102A100003C080916E15E0CFDF91CF911F910F9190
:102A2000FF90EF90DF90CF90BF90AF909F90089570
:102A3000EF92FF920F931F93CF93DF9384E690E082
:102A40000E94D40A8C01892B09F4D9C088E290E055
:102A50000E94D40AEC01892BB1F0188F0F8B44E649
:102A600050E065EA70E0C8010E94E7210F89188DE7
:102A70000D591F4F89E4898FEEE2F3E0DE015A968B
:102A800025E333E004C0C8010E94090BB8C081915E
:102A90008D93882319F0E217F307C9F718A21E8A4D
:102AA00019A21AA27E0182E0E80EF11CC7010E9461
:102AB000180BCE010C960E94180BD987C88784E0AA
:102AC00090E09D878C87DB8BCA8B1BA21CA21DA26A
:102AD0001EA21FA240E050E062E870E0C8010E9420
:102AE000940B998388830FB6F8940F928091741594
:102AF0008F5F809374158091CB159091CC15892BA5
:102B0000D1F5D093CC15C093CB158091741581303D
:102B100009F040C087EA95E10E940A0B80EB95E13D
:102B20000E940A0B89EB95E10E940A0B82EC95E169
:102B30000E940A0B8EE995E10E940A0B85E995E156
:102B40000E940A0B88E895E10E940A0B8FE795E145
:102B50000E940A0B85E795E10E940A0B8EE995E138
:102B6000909394158093931585E995E19093921530
:102B7000809391150FC08091701581110BC0E09169
:102B8000CB15F091CC158689811104C0D093CC155A
:102B9000C093CB1580916C158F5F80936C158E89D7
:102BA00090917115981710F48093711590E09C0125
:102BB000220F331F220F331F220F331F820F931F49
:102BC000B70189559A4E0E941C0B0F900FBE809141
:102BD0007015882321F08091CB159091CC15F89435
:102BE0008FEF9FEF90936B1580936A1581E0809330
:102BF000701510927315109272150E94060CDF91D9
:102C0000CF911F910F91FF90EF90089580916915DA
:102C10008F5F8093691508959F92AF92BF92CF9274
:102C2000DF92EF92FF920F931F93CF93DF930FB634
:102C3000F8940F9280916915815080936915809165
:102C40006915811128C180917415811133C026C185
:102C5000D7011596ED91FC911697C681D781CE01CB
:102C60000C960E946E0B8E010E5F1F4FC8010E94D2
:102C70006E0B8E8990917115981710F480937115D1
:102C800090E09C01220F331F220F331F220F331FAE
:102C9000820F931FB80189559A4E0E941C0BE09138
:102CA000CB15F091CC159E898689981758F0D09253
:102CB0006E1508C00F2EF8E8EF2EF5E1FF2EF02D6F
:102CC000DD24D394F70180818111C2CF80916F15EB
:102CD000882309F4D8C080916F15882309F4D3C0E4
:102CE000912CBB24B394CC24CA94DC2C809169151C
:102CF0008111AFC0809172159091731501969093D8
:102D0000731580937215E0907215F0907315E114AD
:102D1000F10489F580919315909194152091911566
:102D200030919215309394152093931590939215AA
:102D30008093911580916D158F5F80936D15E09153
:102D40009315F09194158081811105C0D0926B1577
:102D5000C0926A1510C0E0919315F091941505800A
:102D6000F681E02D0680F781E02D8281938190939A
:102D70006B1580936A1580916A1590916B15E81612
:102D8000F90610F4A92C4FC0A92CE0919315F091ED
:102D900094158081811105C0D0926B15C0926A157F
:102DA00042C0E0919315F09194150580F681E02DD5
:102DB000C681D7818A819B81E816F90628F4909311
:102DC0006B1580936A152FC08E010E5F1F4FC801CF
:102DD0000E946E0B8C899D89892B21F0CE010C9667
:102DE0000E946E0B8E8990917115981710F4809344
:102DF000711590E09C01220F331F220F331F220F09
:102E0000331F820F931FB80189559A4E0E941C0BE5
:102E1000E091CB15F091CC159E898689981708F41E
:102E2000B4CFAB2CB2CFE091CB15F091CC15868905
:102E300090E0FC01EE0FFF1FEE0FFF1FEE0FFF1FD4
:102E40008E0F9F1FFC01E955FA4E8081823048F5B4
:102E50000AC080916F158F5F80936F1580916E15FA
:102E6000811106C007C080916E15811101C0A110AB
:102E7000B0926E1580916F15815080936F1580917F
:102E80006F15811133CF80916E15813031F40E941E
:102E90004F0C81E003C080E001C080E00F900FBEC6
:102EA00003C080916E15E4CFDF91CF911F910F91F8
:102EB000FF90EF90DF90CF90BF90AF909F900895DC
:102EC000CF92DF92EF92FF920F931F93CF93DF93F6
:102ED000809169158111B7C0809172159091731519
:102EE00001969093731580937215E0907215F0908F
:102EF0007315E114F10499F580919315909194154F
:102F0000209191153091921530939415209393153B
:102F1000909392158093911580916D158F5F80939A
:102F20006D15E0919315F09194158081811107C082
:102F30008FEF9FEF90936B1580936A1510C0E0910F
:102F40009315F09194150580F681E02D0680F781A8
:102F5000E02D8281938190936B1580936A15809107
:102F60006A1590916B15E816F90610F4D12C53C030
:102F7000D12CCC24C394E0919315F09194158081C9
:102F8000811107C08FEF9FEF90936B1580936A15A7
:102F900042C0E0919315F09194150580F681E02DE3
:102FA000C681D7818A819B81E816F90628F490931F
:102FB0006B1580936A152FC08E010E5F1F4FC801DD
:102FC0000E946E0B8C899D89892B21F0CE010C9675
:102FD0000E946E0B8E8990917115981710F4809352
:102FE000711590E09C01220F331F220F331F220F17
:102FF000331F820F931FB80189559A4E0E941C0BF4
:10300000E091CB15F091CC159E898689981708F42C
:10301000B2CFDC2CB0CFE091CB15F091CC158689E6
:1030200090E0FC01EE0FFF1FEE0FFF1FEE0FFF1FE2
:103030008E0F9F1FFC01E955FA4E8081823048F0C7
:10304000DD24D39406C080916F158F5F80936F1538
:10305000D12C80916E15882311F0DD24D3948D2D11
:10306000DF91CF911F910F91FF90EF90DF90CF9064
:10307000089580916915882321F081E080936E1571
:10308000089510926E158091711590E0FC01EE0F7D
:10309000FF1FEE0FFF1FEE0FFF1F8E0F9F1FFC0184
:1030A000E955FA4E8081811117C0809171158150C8
:1030B000809371158091711590E0FC01EE0FFF1F58
:1030C000EE0FFF1FEE0FFF1F8E0F9F1FFC01E95534
:1030D000FA4E8081882349F38091711590E09C011C
:1030E000220F331F220F331F220F331F280F391FC8
:1030F000D901A955BA4E1196ED91FC911297028013
:10310000F381E02D1296FC93EE93119726553A4EDB
:10311000E217F30729F422813381FD0132832183F1
:10312000FC01EE0FFF1FEE0FFF1FEE0FFF1F8E0FB4
:103130009F1FFC01E955FA4E0180F281E02D868146
:1031400097819093CC158093CB150895CF93DF93FF
:10315000EB016091CB157091CC15645F7F4F0E949D
:103160003D0B8091CB159091CC1502960E946E0B71
:10317000CF3F8FEFD80759F46091CB157091CC15E4
:103180006E5F7F4F85E795E10E941C0B37C08091F1
:10319000721590917315C80FD91FE091CB15F0915E
:1031A000CC15D383C2838091721590917315C81783
:1031B000D90768F46091CB157091CC158091911569
:1031C000909192156E5F7F4F0E943D0B17C06091EA
:1031D000CB157091CC1580919315909194156E5FDD
:1031E0007F4F0E943D0B80916A1590916B15C81717
:1031F000D90720F4D0936B15C0936A15DF91CF9156
:1032000008950F931F93CF93DF93DC011596ED91F3
:10321000FC911697C681D7818E01045F1F4FC801AC
:103220000E946E0B8091691581111CC00A50110912
:10323000C8010E946E0B8E8990917115981710F439
:103240008093711590E09C01220F331F220F331FD2
:10325000220F331F820F931FB80189559A4E0E9487
:103260001C0B05C0B80188E895E10E941C0BE09199
:10327000CB15F091CC159E898689891720F481E0C1
:1032800080936E1501C080E0DF91CF911F910F9167
:10329000089520916D15FC012083209172153091C5
:1032A0007315328321830895FC010FB6F8940F92B1
:1032B0002091721530917315DB018D919C918F3F98
:1032C000BFEF9B0721F140916D155081541729F0F4
:1032D0004181528124173507E0F441815281D9019F
:1032E000A41BB50BA817B907B0F4421B530B840FEE
:1032F000951FDB018D939C9380916D158083809148
:103300007215909173159283818380E005C080E0EF
:1033100003C081E001C081E00F900FBE089581E0FD
:1033200080936E1508950F931F93CF93DF93FC0145
:10333000892B09F455C02689A091CB15B091CC15E5
:1033400056968C91281708F04BC084859585992353
:1033500064F0A091CB15B091CC1556963C9184E0C9
:1033600090E0831B91099587848730E0C901880F1D
:10337000991F880F991F880F991F280F391F2955EA
:103380003A4E828593858217930719F58F01EF01D5
:103390002296CE010E946E0BE091CB15F091CC15D8
:1033A0008689F801868B90917115981710F4809397
:1033B000711590E09C01220F331F220F331F220F43
:1033C000331F820F931FBE0189559A4E0E941C0B1A
:1033D00007C0A091CB15B091CC1556968C91868BD9
:1033E000DF91CF911F910F9108950F931F93CF936A
:1033F000DF93FC01892B79F182A1815082A3268978
:1034000091A1291751F181112AC0EF018F010E5F9F
:103410001F4FC8010E946E0B89A18E8B24E030E003
:10342000281B31093D872C8790917115981710F44E
:103430008093711590E09C01220F331F220F331FE0
:10344000220F331F820F931FB80189559A4E0E9495
:103450001C0B81E005C080E003C080E001C080E07B
:10346000DF91CF911F910F9108958091CB1590918D
:10347000CC15892B39F0E091CB15F091CC1582A1B8
:103480008F5F82A38091CB159091CC150895CF9337
:10349000DF93DC010FB6F8940F921D962D913C91AD
:1034A0001E970F900FBE57968D919C915897281795
:1034B0003907F1F0FD013D96C281D3816883828195
:1034C00093810196938382832085318582179307A8
:1034D00021F486819781938382830FB6F8940F92AB
:1034E000808191810196918380830F900FBE37C0B8
:1034F0002FEF8FE891E0215080409040E1F700C02D
:1035000000000FB6F8940F921D962D913C911E97D6
:103510000F900FBE57968D919C9158972817390799
:1035200009F444C0FD013D96C281D3816883828144
:103530009381019693838283208531858217930737
:1035400021F486819781938382830FB6F8940F923A
:10355000808191810196918380830F900FBE8C9121
:1035600090E08830910520F5FC018827EE58FF4F48
:103570008F4F0DC7E1ECF0E080818062808381E0B5
:1035800018C0E9ECF0E080818062808381E011C0A6
:10359000E1EDF0E080818062808381E00AC0E1E3B8
:1035A000F1E080818062808381E003C080E001C01F
:1035B00081E0DF91CF9108957F928F929F92AF9299
:1035C000BF92CF92DF92EF92FF920F931F93CF9310
:1035D000DF93CDB7DEB7A2970FB6F894DEBF0FBE6C
:1035E000CDBF6C01762E49015A01C7010E94D40A51
:1035F0000097A9F0FE0132960FB6F8940F9211824F
:1036000010829383828395838483978386838E0D30
:103610009F1D91878087F386E2860F900FBEC801B9
:103620000E94D40A0097A9F0FE013E960FB6F894C6
:103630000F92118210829383828395838483978370
:103640008683800F911F91878087138702870F9051
:103650000FBEC8010E94D40A9B8F8A8F79821D8F6A
:103660000C8F1E8E8F8E98A2A9A2BAA20FB6F894C4
:103670000F92898190E08830910508F0B1C1FC017A
:103680008827E658FF4F8F4F82C6D501C401975F48
:10369000A24CBF4FBC01CD01660F771F881F991F39
:1036A000660F771F881F991F95018401000F111F56
:1036B000221F331F000F111F221F331FA901980162
:1036C000220F331F441F551F24D621503109309338
:1036D000C5002093C40082E08093C00088E98093F5
:1036E000C1008EE08093C2007BC104EC10E0F801C1
:1036F000118210826A9A80EC8093C20088E98093DC
:10370000C100D501C40180589B47A14EBF4F880F0F
:10371000991FAA1FBB1F880F991FAA1FBB1FBC019F
:10372000CD01660F771F881F991F880C991CAA1C52
:10373000BB1C880C991CAA1CBB1CA5019401220F60
:10374000331F441F551F220F331F441F551FE1D540
:1037500021503109F8013183208342C1D501C401D0
:10376000975FA24CBF4FBC01CD01660F771F881F2A
:10377000991F660F771F881F991F95018401000FFD
:10378000111F221F331F000F111F221F331FA901FA
:103790009801220F331F441F551FBBD521503109FB
:1037A0003093CD002093CC0082E08093C80088E95C
:1037B0008093C9008EE08093CA0012C10CEC10E027
:1037C000F80111821082559A80EC8093CA0088E932
:1037D0008093C900D501C40180589B47A14EBF4FBB
:1037E000880F991FAA1FBB1F880F991FAA1FBB1FF5
:1037F000BC01CD01660F771F881F991F880C991C8B
:10380000AA1CBB1C880C991CAA1CBB1CA5019401FA
:10381000220F331F441F551F220F331F441F551FF4
:1038200078D521503109F80131832083D9C0D501E1
:10383000C401975FA24CBF4FBC01CD01660F771F3B
:10384000881F991F660F771F881F991F9501840194
:10385000000F111F221F331F000F111F221F331FC4
:10386000A9019801220F331F441F551F52D5215023
:1038700031093093D5002093D40082E08093D000AA
:1038800088E98093D1008EE08093D200A9C004ED36
:1038900010E0F80111821082E1E0F1E080818460A3
:1038A000808380EC8093D20088E98093D100D50199
:1038B000C40180589B47A14EBF4F880F991FAA1F74
:1038C000BB1F880F991FAA1FBB1FBC01CD01660F2C
:1038D000771F881F991F880C991CAA1CBB1C880C79
:1038E000991CAA1CBB1CA5019401220F331F441F65
:1038F000551F220F331F441F551F0BD5215031096F
:10390000F801318320836CC0D501C401975FA24CBC
:10391000BF4FBC01CD01660F771F881F991F660F2F
:10392000771F881F991F95018401000F111F221F07
:10393000331F000F111F221F331FA9019801220FEF
:10394000331F441F551FE5D42150310930933501F1
:103950002093340182E08093300188E98093310123
:103960008EE0809332013CC004E311E0F801118243
:103970001082E4E0F1E080818460808380EC8093B9
:10398000320188E980933101D501C40180589B47F9
:10399000A14EBF4F880F991FAA1FBB1F880F991FE9
:1039A000AA1FBB1FBC01CD01660F771F881F991F7F
:1039B000880C991CAA1CBB1C880C991CAA1CBB1C3B
:1039C000A5019401220F331F441F551F220F331FDF
:1039D000441F551F9ED421503109F80131832083A3
:1039E0000F900FBE82E2FE013196D60101900D923A
:1039F0008A95E1F7C601A2960FB6F894DEBF0FBE16
:103A0000CDBFDF91CF911F910F91FF90EF90DF908D
:103A1000CF90BF90AF909F908F907F9008951F920E
:103A20000F920FB60F9211240BB60F922F933F9364
:103A30004F938F939F93AF93BF93EF93FF93809197
:103A4000C0008C7171F08091C00088230CF036C0EA
:103A5000A6ECB0E0E0ECF0E08C9180818823E4F308
:103A60002DC04091C6000FB6F8940F92EDECF5E131
:103A7000218132810F900FBE8385948528173907E5
:103A8000E9F0EEECF5E1A281B3814C938281938160
:103A9000019693838283208531858217930721F4D1
:103AA00086819781938382830FB6F8940F928081E9
:103AB00091810196918380830F900FBEFF91EF91CA
:103AC000BF91AF919F918F914F913F912F910F9007
:103AD0000BBE0F900FBE0F901F9018951F920F9264
:103AE0000FB60F9211240BB60F922F938F939F93C3
:103AF000AF93BF93EF93FF930FB6F8940F9280911B
:103B0000DA159091DB150F900FBE892B31F4E1ECA3
:103B1000F0E080818F7D80831CC0EAEDF5E1A48117
:103B2000B5812D91B583A48380859185A817B907A8
:103B300021F486819781958384830FB6F8940F9240
:103B4000808191810197918380830F900FBE209394
:103B5000C600FF91EF91BF91AF919F918F912F91EF
:103B60000F900BBE0F900FBE0F901F9018951F92D5
:103B70000F920FB60F9211240BB60F922F933F9313
:103B80004F938F939F93AF93BF93EF93FF93809146
:103B9000C8008C7171F08091C80088230CF036C089
:103BA000AEECB0E0E8ECF0E08C9180818823E4F3A7
:103BB0002DC04091CE000FB6F8940F92E7E7F6E1E2
:103BC000218132810F900FBE838594852817390794
:103BD000E9F0E8E7F6E1A281B3814C938281938119
:103BE000019693838283208531858217930721F480
:103BF00086819781938382830FB6F8940F92808198
:103C000091810196918380830F900FBEFF91EF9178
:103C1000BF91AF919F918F914F913F912F910F90B5
:103C20000BBE0F900FBE0F901F9018951F920F9212
:103C30000FB60F9211240BB60F922F938F939F9371
:103C4000AF93BF93EF93FF930FB6F8940F928091C9
:103C50008416909185160F900FBE892B31F4E9ECF4
:103C6000F0E080818F7D80831CC0E4E8F6E1A481D0
:103C7000B5812D91B583A48380859185A817B90757
:103C800021F486819781958384830FB6F8940F92EF
:103C9000808191810197918380830F900FBE209343
:103CA000CE00FF91EF91BF91AF919F918F912F9196
:103CB0000F900BBE0F900FBE0F901F9018951F9284
:103CC0000F920FB60F9211240BB60F922F933F93C2
:103CD0004F938F939F93AF93BF93EF93FF938091F5
:103CE000D0008C7171F08091D00088230CF036C028
:103CF000A6EDB0E0E0EDF0E08C9180818823E4F364
:103D00002DC04091D6000FB6F8940F92E3E3F6E190
:103D1000218132810F900FBE838594852817390742
:103D2000E9F0E4E3F6E1A281B3814C9382819381CF
:103D3000019693838283208531858217930721F42E
:103D400086819781938382830FB6F8940F92808146
:103D500091810196918380830F900FBEFF91EF9127
:103D6000BF91AF919F918F914F913F912F910F9064
:103D70000BBE0F900FBE0F901F9018951F920F92C1
:103D80000FB60F9211240BB60F922F938F939F9320
:103D9000AF93BF93EF93FF930FB6F8940F92809178
:103DA0004016909141160F900FBE892B31F4E1ED32
:103DB000F0E080818F7D80831CC0E0E4F6E1A48187
:103DC000B5812D91B583A48380859185A817B90706
:103DD00021F486819781958384830FB6F8940F929E
:103DE000808191810197918380830F900FBE2093F2
:103DF000D600FF91EF91BF91AF919F918F912F913D
:103E00000F900BBE0F900FBE0F901F9018951F9232
:103E10000F920FB60F9211240BB60F922F933F9370
:103E20004F938F939F93AF93BF93EF93FF938091A3
:103E300030018C7171F08091300188230CF036C014
:103E4000A6E3B1E0E0E3F1E08C9180818823E4F324
:103E50002DC0409136010FB6F8940F92E5E5F6E1DA
:103E6000218132810F900FBE8385948528173907F1
:103E7000E9F0E6E5F6E1A281B3814C93828193817A
:103E8000019693838283208531858217930721F4DD
:103E900086819781938382830FB6F8940F928081F5
:103EA00091810196918380830F900FBEFF91EF91D6
:103EB000BF91AF919F918F914F913F912F910F9013
:103EC0000BBE0F900FBE0F901F9018951F920F9270
:103ED0000FB60F9211240BB60F922F938F939F93CF
:103EE000AF93BF93EF93FF930FB6F8940F92809127
:103EF0006216909163160F900FBE892B31F4E1E3A7
:103F0000F1E080818F7D80831CC0E2E6F6E1A48130
:103F1000B5812D91B583A48380859185A817B907B4
:103F200021F486819781958384830FB6F8940F924C
:103F3000808191810197918380830F900FBE2093A0
:103F40003601FF91EF91BF91AF919F918F912F918A
:103F50000F900BBE0F900FBE0F901F9018955058EA
:103F6000BB27AA270ED00DC1FED030F003D120F020
:103F700031F49F3F11F41EF4F3C00EF4E095E7FB1B
:103F8000E9C0E92F0FD180F3BA17620773078407DE
:103F9000950718F071F49EF527C10EF4E0950B2EED
:103FA000BA2FA02D0B01B90190010C01CA01A0018B
:103FB0001124FF27591B99F0593F50F4503E68F1E6
:103FC0001A16F040A22F232F342F4427585FF3CF27
:103FD000469537952795A795F0405395C9F77EF4F8
:103FE0001F16BA0B620B730B840BBAF09150A1F041
:103FF000FF0FBB1F661F771F881FC2F70EC0BA0FC7
:10400000621F731F841F48F4879577956795B7954E
:10401000F7959E3F08F0B3CF9395880F08F0992746
:10402000EE0F97958795089571D008F481E0089573
:1040300004D06894B111D9C00895BCD088F09F57BE
:1040400090F0B92F9927B751A0F0D1F0660F771FE4
:10405000881F991F1AF0BA95C9F712C0B13081F0C4
:10406000C3D0B1E00895C0C0672F782F8827B85F0C
:1040700039F0B93FCCF3869577956795B395D9F725
:104080003EF490958095709561957F4F8F4F9F4F2F
:104090000895E89409C097FB3EF49095809570953B
:1040A00061957F4F8F4F9F4F9923A9F0F92F96E984
:1040B000BB279395F695879577956795B795F111F9
:1040C000F8CFFAF4BB0F11F460FF1BC06F5F7F4F96
:1040D0008F4F9F4F16C0882311F096E911C07723A8
:1040E00021F09EE8872F762F05C0662371F096E8B1
:1040F000862F70E060E02AF09A95660F771F881F80
:10410000DAF7880F9695879597F90895990F000823
:10411000550FAA0BE0E8FEEF16161706E807F90799
:10412000C0F012161306E407F50798F0621B730B34
:10413000840B950B39F40A2661F0232B242B252BB5
:1041400021F408950A2609F4A140A6958FEF811D58
:10415000811D089597F99F6780E870E060E00895F9
:104160009FEF80EC089500240A941616170618068F
:104170000906089500240A9412161306140605066B
:104180000895092E0394000C11F4882352F0BB0FFC
:1041900040F4BF2B11F460FF04C06F5F7F4F8F4F5F
:1041A0009F4F089557FD9058440F551F59F05F3F9A
:1041B00071F04795880F97FB991F61F09F3F79F049
:1041C00087950895121613061406551FF2CF4695CB
:1041D000F1DF08C0161617061806991FF1CF86954D
:1041E0007105610508940895E894BB276627772731
:1041F000CB0197F908958ADF08F48FEF08950BD06B
:10420000C0CFB1DF28F0B6DF18F0952309F0A2CFB8
:10421000A7CF1124EACFC6DFA0F3959FD1F3950F66
:1042200050E0551F629FF001729FBB27F00DB11D3A
:10423000639FAA27F00DB11DAA1F649F6627B00DCA
:10424000A11D661F829F2227B00DA11D621F739FB3
:10425000B00DA11D621F839FA00D611D221F749FC1
:104260003327A00D611D231F849F600D211D822F08
:10427000762F6A2F11249F5750408AF0E1F088234F
:104280004AF0EE0FFF1FBB1F661F771F881F91505C
:104290005040A9F79E3F510570F05CCFA6CF5F3F1D
:1042A000ECF3983EDCF3869577956795B795F7958F
:1042B000E7959F5FC1F7FE2B880F911D9695879517
:1042C00097F90895AA1BBB1B51E107C0AA1FBB1F8A
:1042D000A617B70710F0A61BB70B881F991F5A9592
:1042E000A9F780959095BC01CD01089597FB072E05
:1042F00016F4009406D077FD08D0E4DF07FC05D063
:104300003EF4909581959F4F0895709561957F4FEC
:104310000895A1E21A2EAA1BBB1BFD010DC0AA1F06
:10432000BB1FEE1FFF1FA217B307E407F50720F01E
:10433000A21BB30BE40BF50B661F771F881F991F99
:104340001A9469F760957095809590959B01AC01E2
:10435000BD01CF010895052E97FB16F400940FD0F0
:1043600057FD05D0D6DF07FC02D046F408C05095B3
:104370004095309521953F4F4F4F5F4F0895909551
:104380008095709561957F4F8F4F9F4F0895EE0FE9
:10439000FF1F881F8BBF0790F691E02D1994A29FF5
:1043A000B001B39FC001A39F700D811D1124911D09
:1043B000B29F700D811D1124911D0895FB01DC0138
:1043C00002C001900D9241505040D8F70895DC0191
:1043D00001C06D9341505040E0F70895BB274A302B
:1043E00031F4992322F4BDE2909581959F4F01C04D
:1043F000BB27FB015527AA27880F991FAA1FA417BF
:1044000010F0A41B83955051B9F7A05DAA3308F0B2
:10441000A95DA193009779F7B111B1931192CB01E6
:1044200026C2CF93DF93CDB7DEB7AE014A5F5F4FB1
:10443000FA0161917191AF0180919B1690919C1648
:1044400003D0DF91CF9108952F923F924F925F92C8
:104450006F927F928F929F92AF92BF92CF92DF9294
:10446000EF92FF920F931F93CF93DF93CDB7DEB7F9
:104470002B970FB6F894DEBF0FBECDBF6C017B014A
:104480008A01FC0117821682838181FFBFC1CE01A0
:1044900001963C01F6019381F70193FD859193FF0D
:1044A00081917F01882309F4ADC1853239F493FDF0
:1044B000859193FF81917F01853221F4B60190E0CF
:1044C000E6D1E8CF912C212C312CFFE1F315D8F067
:1044D0008B3279F038F4803279F08332A1F4232DD5
:1044E00020611DC08D3261F0803369F4232D21607D
:1044F00016C0832D8260382EE32DE4603E2E2AC044
:10450000F32DF8601DC037FC2DC020ED280F2A3098
:1045100040F08E32B9F436FC75C1232D2064322E62
:1045200019C036FE06C08AE0989E200D1124922EF6
:1045300011C0EAE02E9E200D1124222EF32DF062F0
:104540003F2E08C08C3621F4832D8068382E02C09F
:10455000883641F4F70193FD859193FF81917F01A6
:104560008111B3CF982F9F7D9554933028F40C5F21
:104570001F4F9FE399830DC0833631F0833771F06D
:10458000833509F055C020C0F801808189830E5F12
:104590001F4F88248394912C530112C02801F2E00C
:1045A0004F0E511CF801A080B18036FE03C0692D6A
:1045B00070E002C06FEF7FEFC5014ED14C01820168
:1045C000F32DFF773F2E15C0280122E0420E511C2B
:1045D000F801A080B18036FE03C0692D70E002C0F2
:1045E0006FEF7FEFC5012DD14C01F32DF0683F2E09
:1045F000820133FC19C0822D90E088169906A0F440
:10460000B60180E290E043D12A94F5CFF50137FC62
:10461000859137FE81915F01B60190E038D121107C
:104620002A9421E0821A91088114910479F7E1C05B
:10463000843611F0893639F5F80137FE07C06081FC
:104640007181828193810C5F1F4F08C060817181ED
:10465000072E000C880B990B0E5F1F4FF32DFF7672
:104660003F2E97FF09C090958095709561957F4F7B
:104670008F4F9F4FF0683F2E2AE030E0A30143D1D7
:10468000882E861844C0853731F4232D2F7EB22E14
:104690002AE030E025C0932D997FB92E8F36C1F0E6
:1046A00018F4883579F0AEC0803719F0883721F0DA
:1046B000A9C0E92FE061BE2EB4FE0DC0FB2DF46051
:1046C000BF2E09C034FE0AC0292F2660B22E06C0B4
:1046D00028E030E005C020E130E002C020E132E017
:1046E000F801B7FE07C060817181828193810C5F00
:1046F0001F4F06C06081718180E090E00E5F1F4F08
:10470000A30101D1882E8618FB2DFF773F2E36FEA0
:104710000DC0232D2E7FA22E891458F434FE0BC019
:1047200032FC09C0832D8E7EA82E05C0B82CA32C88
:1047300003C0B82C01C0B92CA4FE0FC0FE01E80DC7
:10474000F11D8081803321F49A2D997EA92E09C014
:10475000A2FE06C0B394B39404C08A2D867809F0F3
:10476000B394A3FC10C0A0FE06C0B21480F4280CC1
:10477000922C9B180DC0B21458F4B60180E290E060
:1047800086D0B394F8CFB21418F42B1802C0982C2A
:10479000212CA4FE0FC0B60180E390E078D0A2FEE9
:1047A00016C0A1FC03C088E790E002C088E590E055
:1047B000B6010CC08A2D867851F0A1FE02C08BE2B2
:1047C00001C080E2A7FC8DE2B60190E060D08914C0
:1047D00030F4B60180E390E05AD09A94F8CF8A94EE
:1047E000F301E80DF11D8081B60190E050D08110F9
:1047F000F6CF222009F44ECEB60180E290E047D0F9
:104800002A94F7CFF6018681978102C08FEF9FEF40
:104810002B960FB6F894DEBF0FBECDBFDF91CF91C0
:104820001F910F91FF90EF90DF90CF90BF90AF90CE
:104830009F908F907F906F905F904F903F902F90C0
:104840000895FC010590615070400110D8F78095E3
:1048500090958E0F9F1F0895FC016150704001904C
:104860000110D8F7809590958E0F9F1F0895DC0159
:10487000FC01672F71917723E1F7329704C07C9197
:104880006D9370836291AE17BF07C8F308950F93BD
:104890001F93CF93DF93FB01238121FD03C08FEF93
:1048A0009FEF2CC022FF16C046815781248135819D
:1048B0004217530744F4A081B1819D012F5F3F4F00
:1048C000318320838C93268137812F5F3F4F37833D
:1048D000268314C08B01EC01FB010084F185E02DDF
:1048E0001995892BE1F6D80116968D919C91179711
:1048F000019617969C938E931697CE01DF91CF91D8
:104900001F910F910895FA01AA27283051F1203103
:1049100081F1E8946F936E7F6E5F7F4F8F4F9F4F53
:10492000AF4FB1E03ED0B4E03CD0670F781F891F95
:104930009A1FA11D680F791F8A1F911DA11D6A0F63
:10494000711D811D911DA11D20D009F468943F9116
:104950002AE0269F11243019305D3193DEF6CF0115
:104960000895462F4770405D4193B3E00FD0C9F7DB
:10497000F6CF462F4F70405D4A3318F0495D31FD48
:104980004052419302D0A9F7EACFB4E0A69597959B
:10499000879577956795BA95C9F700976105710571
:1049A00008959B01AC010A2E0694579547953795BB
:1049B0002795BA95C9F7620F731F841F951FA01D15
:0649C0000895F894FFCFFA
:1049C6002574090A74656D703A2569303543004DC2
:1049D60041583A256930382020200A4D494E3A255B
:1049E60069303700636C2E2E636C256930332041A5
:1049F60076653A256930362020200A4D696E2D4DA0
:104A060061783D256930372D2569303800445331AA
:104A1600385832305F73746172745F6D6561733AD2
:104A26002053686F72742043697263756974210D2F
:104A360000445331385832305F77726974655F735A
:104A46006372617463687061643A2053686F72744C
:104A56002043697263756974210D004453313858D7
:104A660032305F726561645F73637261746368702C
:104A760061643A2053686F72742043697263756982
:104A860074210D00445331385832305F636F7079AA
:104A96005F736372617463687061643A2053686F10
:104AA60072742043697263756974210D0044533131
:104AB600385832305F726563616C6C5F45323A20FC
:104AC60074696D656F7574210D0044533138583221
:104AD600305F726563616C6C5F45323A2053686F74
:104AE60072742043697263756974210D0049444CE0
:024AF600450079
:00000001FF
