:10000000F3C1000011C200000FC200000DC20000C9
:100010000BC2000009C2000007C2000005C20000B8
:1000200003C2000001C20000FFC10000FDC10000CA
:10003000FBC10000F9C10000F7C10000F5C10000DC
:10004000F3C100000C948F0EEFC10000EDC1000061
:10005000EBC1000015C70000E7C10000E5C10000CA
:10006000E3C100000C94741E0C94D31EDDC100008B
:10007000DBC10000D9C10000D7C10000D5C100001C
:10008000D3C10000D1C10000CFC10000CDC100002C
:100090000C941C1F0C947B1FC7C10000C5C100003D
:1000A000C3C10000C1C10000BFC10000BDC100004C
:1000B000BBC10000B9C10000B7C10000B5C100005C
:1000C000B3C10000B1C10000AFC100000C94C41F57
:1000D0000C942320A9C100000C946C200C94CB201C
:1000E000A3C100001F1C1F1C261C261C2D1C2D1C20
:1000F000341C341CAA1CDA1C131D431D7C1DAC1DB2
:10010000E91D191E0F2EF8E0AF2EF6E1BF2EF02DDF
:1001100001E116E188248A94982C33243394432CEB
:10012000732C52C18091F2158F5F8093F215D50127
:100130006C900FB6F8940F928091F21581508093D5
:10014000F2158091F21581111AC18091FD1581116E
:1001500033C015C1D8011596ED91FC911697C68153
:10016000D781CE010C960E94D30C7E01B2E0EB0E3B
:10017000F11CC7010E94D30C8E899091FA15981733
:1001800010F48093FA1590E09C01220F331F220F88
:10019000331F220F331F820F931FB701805D994ECB
:1001A0000E94810CE0915416F09155169E89868923
:1001B000981710F04092F715F80180818111CACF8D
:1001C0008091F815882309F4D4C08091F81588230C
:1001D00009F4CFC08091F2158111B1C08091FB1557
:1001E0009091FC1501969093FC158093FB15C0909F
:1001F000FB15D090FC15C114D10489F580911C1613
:1002000090911D1620911A1630911B1630931D16D1
:1002100020931C1690931B1680931A168091F61546
:100220008F5F8093F615E0911C16F0911D1680816A
:10023000811105C09092F4158092F31510C0E091E1
:100240001C16F0911D160580F681E02D0680F781C1
:10025000E02D828193819093F4158093F315809122
:10026000F3159091F415C816D90610F4252C50C03A
:10027000252CE0911C16F0911D168081811105C07E
:100280009092F4158092F31543C0E0911C16F09102
:100290001D160580F681E02DC681D7818A819B815C
:1002A000C816D90628F49093F4158093F31530C03E
:1002B0007E01F2E0EF0EF11CC7010E94D30C8C8985
:1002C0009D89892B21F0CE010C960E94D30C8E893A
:1002D0009091FA15981710F48093FA1590E09C010C
:1002E000220F331F220F331F220F331F820F931F42
:1002F000B701805D994E0E94810CE0915416F091F7
:1003000055169E898689981708F4B3CF272CB1CF4C
:10031000E0915416F0915516868990E0FC01EE0F9D
:10032000FF1FEE0FFF1FEE0FFF1F8E0F9F1FFC0121
:10033000E05DF94E8081823008F053C00AC08091A0
:10034000F8158F5F8093F8158091F715882341F099
:1003500005C08091F715811101C021107092F71529
:100360008091F81581508093F8158091F8158111CE
:1003700031CF8091F715813011F40E94B40D0F90A8
:100380000FBE662011F10FB6F8940F92D5011596A5
:10039000ED91FC911697C681D781CE0102960E94FD
:1003A000D30C8091FD1581508093FD158091071627
:1003B0008150809307160F900FBE8F89988D0E94F1
:1003C0006E0CCE010E946E0C512C8091071681118B
:1003D000A9CE80913016823008F4A1CE0E94B40DCF
:1003E0009CCE8091F715BACF11241FBECFEFD1E27A
:1003F000DEBFCDBF00E00CBF13E0A0E0B2E0E8E557
:10040000FAE400E00BBF02C007900D92AC3BB107CD
:10041000D9F727E1ACEBB3E001C01D92AC32B207D3
:10042000E1F77AD50C942A25EBCD8F938FB78F9374
:10043000F894809128178F5F80932817809129174F
:100440008F4F8093291780912A178F4F80932A17F7
:1004500080912B178F4F80932B178F918FBF8F9188
:100460000895EBEDF3E088EA9DEF9187808784E1C2
:1004700095E0978386830E94070C8093BE030F2E1E
:10048000F8EECF2EF3E0DF2EE12CF12CF02DCBEDAA
:10049000D3E08091BE03882391F180E090E00E9438
:1004A000090CA70196010E94F421CA01B9010E941A
:1004B00047210E941421AB012E813F812617370767
:1004C00014F07F836E83288539852417350714F44B
:1004D00079876887288539854E815F81240F351F8C
:1004E000332314F42F5F3F4F359527953D832C839D
:1004F0000FB6F8940F927B836A830F900FBE84E649
:1005000090E00E94DF14C5CFEF92FF920F931F93EC
:10051000CF93DF93CDB7DEB72A970FB6F894DEBF3F
:100520000FBECDBF8C017B01FE0131968AE0DF0159
:100530001D928A95E9F7A8D6F8018081882371F089
:100540000F5F1F4F8A3021F461E080E089D601C03F
:10055000A4D6D8018D918D018111F4CF00E010E077
:10056000AED590E083369105D9F38230910551F4F0
:100570000E151F051CF40F5F1F4F14C0E016F10687
:1005800089F42DC08330910531F40115110549F02E
:100590000150110907C0059729F491D58336E9F771
:1005A00029C087014AE0BE016F5F7F4FC8010E94EA
:1005B00037220A3011054CF461E08AE051D680E31D
:1005C0006CD661E08BE04CD603C061E08AE048D68F
:1005D000CE01019666D673D58336E9F7C1CF4AE0DE
:1005E000BE016F5F7F4F80E090E00E94372200E005
:1005F00010E0E2CFC8012A960FB6F894DEBF0FBE16
:10060000CDBFDF91CF911F910F91FF90EF90089593
:100610000F931F93CF93DF93CDB7DEB728970FB615
:10062000F894DEBF0FBECDBF8091CF039091D00371
:100630000A9714F480E331D60FEC13E04AE0BE01D0
:100640006F5F7F4FF801808191810E943722CE0138
:10065000019627D68AE321D6F801828193810A97F1
:1006600014F480E31AD60FEC13E04AE0BE016F5F8A
:100670007F4FF801828193810E943722CE0101963B
:1006800010D68AE30AD6F801848195810A9714F47A
:1006900080E303D64AE0BE016F5F7F4F8091D303B2
:1006A0009091D4030E943722CE010196FAD5289664
:1006B0000FB6F894DEBF0FBECDBFDF91CF911F9173
:1006C0000F9108950F931F93CF93DF93CDB7DEB7AC
:1006D00028970FB6F894DEBF0FBECDBF0FEC13E026
:1006E0004AE0BE016F5F7F4FF801868197810E94CB
:1006F0003722CE010196D5D58EE2CFD54AE0BE0194
:100700006F5F7F4FF801808591850E943722CE016F
:100710000196C7D58EE2C1D54AE0BE016F5F7F4F1B
:10072000F801828593850E943722CE010196B9D5C2
:1007300028960FB6F894DEBF0FBECDBFDF91CF91E4
:100740001F910F9108950F931F93CF93DF93CDB710
:10075000DEB72A970FB6F894DEBF0FBECDBF8091EB
:10076000CF039091D0030A9714F480E396D50FEC51
:1007700013E04AE0BE016F5F7F4FF80180819181F5
:100780000E943722CE0101968CD58AE386D5F801E6
:10079000828193810A9714F480E37FD50FEC13E0F4
:1007A0004AE0BE016F5F7F4FF801828193810E9412
:1007B0003722CE01019675D580E26FD54AE0BE01A1
:1007C0006F5F7F4FF801868197810E943722CE01AB
:1007D000019667D58EE261D54AE0BE016F5F7F4F1B
:1007E000F801808591850E943722CE01019659D566
:1007F0008EE253D54AE0BE016F5F7F4FF8018285DC
:1008000093850E943722CE0101964BD52A960FB6CA
:10081000F894DEBF0FBECDBFDF91CF911F910F9136
:100820000895CF93DF93CDB7DEB728970FB6F8942E
:10083000DEBF0FBECDBFA12C00E010E0C12C0F2EFB
:10084000F7E32F2EF2E03F2EF02D0F2EFDE54F2E79
:10085000F2E05F2EF02D0F2EF1E56F2EF2E07F2EED
:10086000F02D0F2EFCE08F2EF2E09F2EF02DBB24FA
:10087000B394DC2C2C2D4FEF5FEF6CEB73E0809189
:10088000CD039091CE030E9443128091BC0390E06F
:100890002091EA033091EB038217930741F0F4D4DF
:1008A0008091BC0390E09093EB038093EA038091E6
:1008B000BC03833089F028F4813099F0823051F004
:1008C00013C0853021F058F0863069F00DC002E089
:1008D00012E00AC0840108C00EE112E005C08101E7
:1008E00003C0830101C082012C2D4FEF5FEF60E058
:1008F00070E08091C9039091CA030E9443126C2D4D
:100900008C2DAED4D8018C91882309F48CC0F801C9
:100910008081853209F072C07801FFEFEF1AFF0A7B
:10092000D80111968C91843681F018F48236A1F0AA
:1009300044C08936C1F0843709F03FC00FB6F8943F
:100940000F9266DE0F900FBE77C00FB6F8940F922D
:10095000B9DE0F900FBE70C00FB6F8940F92F3DEA1
:100960000F900FBE69C0F801828190E0C097FC0132
:10097000EE0FFF1F880F991F880F991F880F991F6F
:10098000E80FF91F780183E0E80EF11CD8011396F7
:100990008C910FB6F8940F92E80FF11DEE0FFF1F28
:1009A000E558FC4F4AE0BE016F5F7F4F8081918127
:1009B0000E9437220F900FBE02C0A1102DC0898166
:1009C000882349F18E010F5F1F4FF801818181114A
:1009D00002C08EE262D4D8018C915FD4F8016081AC
:1009E00086E596E10E94AC1B8823C1F30F5F1F4F81
:1009F000D8018C918111E9CFAD2C0EC0F801808116
:100A00008A3029F46B2D8D2D2BD4780105C080817F
:100A100044D4780101C0AD2C87010F5F1F4FF7014F
:100A20008181811174CF60E070E08091C903909161
:100A3000CA030E94AB101ECFAB2CEECFEF92FF92F9
:100A40000F931F93CF93DF9381E08093E90320E01E
:100A50004FEF5FEF60E070E08091C7039091C803B3
:100A60000E94431267E170E089E692E04DDD7C016F
:100A700084E190E00E94DF146CE370E08AE792E08A
:100A800043DD8C0184E190E00E94DF146CE370E0B0
:100A90008DE892E039DDEC0184E190E00E94DF1402
:100AA00080E19EE0E89E9001E99E300DF89E300DB9
:100AB00011244CE3409FC001419F900D1124820FEF
:100AC000931F8C0F9D1F9093ED038093EC03EFEC2D
:100AD000F3E0F182E08213830283D583C48384E14F
:100AE00090E00E94DF141092E90360E070E08091D2
:100AF000C7039091C8030E94AB10DF91CF911F9163
:100B00000F91FF90EF90089501978330910589F040
:100B10008530910589F09C012D7F2830310579F0D1
:100B2000019781F463707727672B79F08CE190E06F
:100B300008958EE190E008958EE190E008958EE1B1
:100B400090E008958FE190E008958DE190E00895A0
:100B5000EF92FF920F931F93CF93DF9381E08093E7
:100B6000E90320E04FEF5FEF60E070E08091C703A2
:100B70009091C8030E94431263E670E080EA92E01D
:100B8000C3DC8C0184E190E00E94DF146CE070E033
:100B900086EB92E0B9DCEC01892B11F4C1E0D0E0E6
:100BA00084E190E00E94DF14EC2EFD2EB801CE010E
:100BB000ABDFBC0187EC92E0A7DCEC01892B11F4E0
:100BC000C1E0D0E084E190E00E94DF14EFECF3E0BC
:100BD000D783C683E086F1861387028784E190E09D
:100BE0000E94DF141092E90360E070E08091C70377
:100BF0009091C8030E94AB10DF91CF911F910F918C
:100C0000FF90EF9008951092C103C0ECD3E00F2E37
:100C1000F3E0FF2EF02D14E002E00F2EF5E0EF2EB2
:100C2000F02D84E690E00E94DF1420E04FEF5FEFAC
:100C300060E070E08091C7039091C8030E94431266
:100C40003ED28093BF0381E090E00E94DF1460E019
:100C500070E08091C7039091C8030E94AB1080910F
:100C6000BF03833611F31092010210920002843008
:100C700028F4823098F48130C9F1D3CF8430B1F1B7
:100C8000853079F6188320E040E050E0BE01809185
:100C9000CD039091CE030E94DF0EC3CF2091EA03D3
:100CA0003091EB032430310591F4823039F4C6DE03
:100CB00084E190E00E94DF14E8820DC0833059F493
:100CC00047DF84E190E00E94DF14E88204C0213015
:100CD000310509F0088320E040E050E0BE0180913A
:100CE000CD039091CE030E94DF0E9BCF8091EA034B
:100CF0009091EB038130910509F493CF049709F4A7
:100D000090CFF88220E040E050E0BE018091CD031A
:100D10009091CE030E94DF0E84CF95E895BDEEE65C
:100D2000F0E090819260908387BD16BC089543E007
:100D300060E081E0F6D79093CC038093CB030097DB
:100D400021F060E070E00E94AB108DE790E0E5DFFD
:100D5000EFECF3E089E190E09783868381E090E017
:100D60009187808785EE97E093878287E2ECF3E0B6
:100D7000118285E08083CFECD3E00F2EF0E1CF2EFF
:100D8000FEE0DF2EF02D0F2EFCE3BF2EF02DEE2423
:100D9000E394F12C20E04FEF5FEF60E070E0809192
:100DA000CB039091CC030E9443120FB6F8940F929C
:100DB000E091EC03F091ED03CF01B6010E94AB216D
:100DC000798368839C01A9E8B8E80E941822969567
:100DD0008795929582958F7089279F7089279B832D
:100DE0008A839F010E9418229695879592958295F5
:100DF0008F7089279F708927B89E9001B99E300D0A
:100E00001124E21BF30BFD83EC830F900FBE8E8049
:100E10009F8008851985B801C80176DE8815990577
:100E200034F4FF82EE820F5F1F4F19870887888591
:100E300099850D973CF0F986E8868A859B85019611
:100E40009B878A878091000290910102039750F05E
:100E500020E040E050E062EC73E08091CD0390919F
:100E6000CE03ADD78091E903811194CF8091000228
:100E700090910102019690930102809300028ACF23
:100E80001F920F920FB60F9211240BB60F922F9351
:100E90003F934F935F936F937F938F939F93AF9302
:100EA000BF93EF93FF938091C5039091C60308967B
:100EB0009093C6038093C50316BC8091C50390919F
:100EC000C603883E9340A9F48091EC039091ED0312
:100ED00001969093ED038093EC0364EC73E08091B2
:100EE000CB039091CC030E9418121092C60310926B
:100EF000C503FF91EF91BF91AF919F918F917F912A
:100F00006F915F914F913F912F910F900BBE0F907A
:100F10000FBE0F901F901895AF92BF92CF92DF92A5
:100F2000EF92FF920F931F93CF93DF93CDB7DEB76E
:100F3000A2970FB6F894DEBF0FBECDBF40E062E0CF
:100F400082E0EFD69093CE038093CD0343E060E040
:100F500081E0E7D69093C8038093C703009721F000
:100F600060E070E00E94AB1043E060E081E0D9D621
:100F70009093CA038093C903009721F060E070E06A
:100F80000E94AB100F2EFAE0EF2EF12CF02D02E3B1
:100F900010E020E835E240E050E060E0CE0101964C
:100FA0000E94411C82E2FE013196A6E5B6E1019065
:100FB0000D928A95E1F78CE083D1A12CB12CC12C44
:100FC000D12CE12CF12C02E020E030E044E650E0AE
:100FD00060E070E081E194E00E94CF1320E030E017
:100FE00044E650E060E070E081E392E00E94CF13BD
:100FF00020E030E044E650E060E070E083E096E01E
:101000000E94CF1320E030E044E650E060E070E062
:1010100087E996E00E94CF130E947D1680E090E061
:10102000A2960FB6F894DEBF0FBECDBFDF91CF9171
:101030001F910F91FF90EF90DF90CF90BF90AF90F6
:101040000895CF93DF93EAE7F0E0808180688083A2
:10105000808180648083808184FFFDCF48E060E0F0
:1010600070E0EAE7F0E0C8E7D0E0A9E7B0E09081FF
:1010700090649083908194FFFDCF88812C9130E023
:10108000322F2227280F311D620F731F415079F72D
:10109000EAE7F0E080818F778083CB019595879593
:1010A0009595879595958795DF91CF910895806463
:1010B00080937C0087E880937A00C3CF08950F93D4
:1010C0001F93CF93DF9380E0F2DFBBDF853893403F
:1010D0000CF5CAE0D0E000E010E0B3DF080F191F04
:1010E0002197D9F7C8016AE070E00E94BF216233FE
:1010F000710594F0663E71058CF0623C81E07807E2
:101100007CF06A3822E072076CF06438734064F057
:1011100083E60BC083E609C081E007C082E005C01A
:1011200083E003C084E001C085E0DF91CF911F918F
:101130000F910895662331F0E2E0F1E09081906232
:10114000908305C0E2E0F1E090819F7D90834111A2
:101150003DC0882334F4E2E0F1E090819061908317
:1011600005C0E2E0F1E090819F7E908386FF06C09B
:10117000E2E0F1E090819860908305C0E2E0F1E068
:101180009081977F908385FF02C0739A01C0739806
:1011900084FF02C0A59A01C0A598E2E0F1E0908129
:1011A0009F7B908395E09A95F1F700009081906481
:1011B000908395E09A95F1F7000090819F7B908352
:1011C000EFE9FFE03197F1F700C0000083FF06C0B0
:1011D000E2E0F1E090819061908305C0E2E0F1E00F
:1011E00090819F7E908382FF06C0E2E0F1E09081D3
:1011F0009860908305C0E2E0F1E09081977F908352
:1012000081FF02C0739A01C0739880FF02C0A59A43
:1012100001C0A598E2E0F1E080818F7B808385E0CA
:101220008A95F1F7000080818064808395E09A952B
:10123000F1F7000080818F7B80838FE99FE0019729
:10124000F1F700C00000A59A739A808188608083BE
:10125000808180618083089540E060E06BCF0895D5
:10126000CF93DF93D82FC62F82E0F6DFC13009F489
:10127000D85DDD2331F0C0E084E1EEDFCF5FDC1329
:10128000FBCFDF91CF91089581E0E6DF8FED9EE205
:101290000197F1F700C00000089540E061E04ACFF7
:1012A0000895CF93DF93EC012196FC018081882380
:1012B00021F0F3DF89918111FCCFDF91CF91089567
:1012C000CF93C82FE1E0F1E080818062808380814C
:1012D000806480839D9A6B9A8081886080838081FE
:1012E000806180832FEF8DEE92E02150804090400E
:1012F000E1F700C00000E2E0F1E080818F7D8083B3
:1013000080818F7B808341E060E083E013DF8FE1A9
:101310009EE40197F1F700C0000041E060E083E047
:1013200009DF8FE99FE00197F1F700C0000041E07D
:1013300060E083E0FFDE8FE99FE00197F1F700C0F6
:10134000000041E060E082E0F5DE40E060E088E23D
:10135000F1DE9ADF86E080DF8C2F7EDFCF9108956B
:1013600061157105A9F0FC01680F791F80E048E163
:10137000219198E0382F322730FF0CC084278695C2
:10138000806826959150B1F7E617F70789F7089519
:1013900080E008958695F5CFEF92FF920F931F930B
:1013A000CF93DF937B01042FBC018EEBDDD10023B3
:1013B00061F0E701015010E00F5F1F4F0E0D1F1D80
:1013C0007CD18993C017D107D9F769E070E0C701D4
:1013D000C7DF811183E0DF91CF911F910F91FF90C3
:1013E000EF9008950F931F93CF93DF93EC018B0140
:1013F000B801888165D1888381508D3F50F4F80110
:101400008081883241F0803141F0823289F780E07A
:1014100005C081E003C080E001C080E0DF91CF9192
:101420001F910F9108951F93CF93DF93182FEB0116
:10143000CFD0A7D0882361F0113029F0BE0184E419
:1014400096D180E00EC0BE0184E48ED180E009C058
:1014500086ED92E09F938F930E945A220F900F90F7
:1014600082E0DF91CF911F910895EF92FF920F9349
:101470001F93CF93DF93CDB7DEB729970FB6F894BC
:10148000DEBF0FBECDBF7C018B01A2D049E0BE0103
:101490006F5F7F4FC70180DFE82F811164C04A81F1
:1014A00050E0542F44278981482BD7018C918031FB
:1014B00071F44E7F440F551F440F551F440F551FA5
:1014C0002F818CE090E0821B9109480F591F552312
:1014D0006CF55195419551099A01329522952F70DD
:1014E00023273F702327A0E1B7E20E9418224F7004
:1014F0005527A1E7B2E04A9F90014B9F300D5A9FBC
:10150000300D1124DC01CB01820F931FA11DB11DF1
:1015100044275527BA01481B590B6A0B7B0BD8018E
:101520004D935D936D937C9313971DC09A013295F3
:1015300022952F7023273F702327A0E1B7E20E9456
:1015400018224F705527A1E7B2E04A9F90014B9FA8
:10155000300D5A9F300D1124AB01BC01420F531FB7
:10156000611D711DDCCF8E2F29960FB6F894DEBF5A
:101570000FBECDBFDF91CF911F910F91FF90EF90E4
:1015800008958FB1807808958F9A879A0895CF93A0
:10159000C82FF894879A8AE08A95F1F700C0C111A4
:1015A000879885E48A95F1F700008FB1880F880B42
:1015B000C82385EE8A95F1F7000087986111E4DF72
:1015C00085E38A95F1F7000078948C2FCF910895E8
:1015D0008F98879A8FE797E00197F1F700C0000096
:1015E000F8948798EFEFF0E03197F1F700C0000032
:1015F0008FB1EFE7F6E03197F1F700C000007F9B75
:1016000002C0807801C081E07894089560E0817024
:10161000BECF0895CF93DF93C82FD8E08C2F817071
:10162000F5DFC6958111C068D150C1F78C2FDF91CD
:10163000CF910895CF93DF93C82FD8E0D13041F0F8
:1016400060E08C2F8170A3DFC695811108C008C0AF
:1016500061E08C2F81709BDFC695882319F0C068EC
:10166000D15061F78C2FDF91CF910895EF92FF92C7
:101670000F931F93CF93DF93E82EEB01F42EA8DF97
:10168000209759F085E5C6DF8E01085F1F4F8991CD
:10169000C1DFC017D107D9F702C08CECBBDFFF2038
:1016A00019F08E2DC7DF02C08E2DB4DFDF91CF91F0
:1016B0001F910F91FF90EF9008958FEFABCF08959A
:1016C000DF92EF92FF920F931F93CF93DF93D82E69
:1016D0008B017EDF811128C080EF9CDFE12CC0E40C
:1016E0000F2EF8EFFF2EF02DFC0E81E08FDFD82FAC
:1016F00081E08CDF882319F0DD23D1F017C0D111F0
:1017000023C0CD15E0F0F801808180FF11C0CD111C
:1017100019C00EC0C150FC12E8CF0F5F1F4FCF2D74
:10172000F110DECF8E2D18C08FEF16C08EEF14C0D3
:1017300080E06CDFF801908196959083EBCFEC2EE2
:10174000D1E002C0EC2ED1E08D2F60DFF801908156
:10175000969590689083DECFDF91CF911F910F9186
:10176000FF90EF90DF90089540E080CF089541E032
:101770007DCF0895CF92DF92FF920F931F93CF9367
:10178000DF93CDB7DEB729970FB6F894DEBF0FBE53
:10179000CDBF2FEF89EB9BED215080409040E1F7CA
:1017A00000C0000015DF8FEF89870F2EF8E7CF2EDE
:1017B000F6E1DF2EF02DF12C8E01075F1F4FBE01E9
:1017C0006F5F7F4FC8010EDE99859F3F89F0FE0154
:1017D0003196D60181918D93E017F107D9F7F394F3
:1017E000992331F028E0C20ED11C88E0F812E7CF2F
:1017F0008F2D29960FB6F894DEBF0FBECDBFDF91B7
:10180000CF911F910F91FF90DF90CF900895B2CFAD
:1018100008950F931F93CF93DF9300D01F92CDB7FE
:10182000DEB78C0160E070E080E0FDDD2FEF8EE937
:1018300094E2215080409040E1F700C00000C801D0
:10184000880F991F880F991F880F991FBE016F5F1E
:101850007F4F8858994E09DE69817A818B819C81FE
:101860000F900F900F900F90DF91CF911F910F91DC
:101870000895CF93DF93EC010E946B178091EE03E4
:101880009091EF03892B31F483EF93E09093EF0372
:101890008093EE032091F0033091F103C9018C0F86
:1018A0009D1F8F3F41E1940770F42817390770F4AA
:1018B000C091EE03D091EF03C20FD31F9093F103B9
:1018C0008093F00305C0C0E0D0E002C0C0E0D0E0EB
:1018D0000E947117CE01DF91CF9108950895FC0108
:1018E0000396928381832FEF3FEF34832383968384
:1018F00085839087878310820895FC011186108666
:101900000895CF93DF939C01FB01DC011196CD91EB
:10191000DC911297D383C2838C819D8195838483CC
:101920008C819D81DC0113967C936E9312977D834D
:101930006C8331872087F90180818F5F8083DF91FD
:10194000CF910895CF93DF93EB01488159814F3FA9
:101950002FEF520721F4FC01A781B0850DC0DC01F7
:10196000139601C0DF011296ED91FC91139720812F
:10197000318142175307B0F71296ED91FC911397FE
:10198000FB83EA83D583C483BD83AC831396DC9346
:10199000CE93129799878887FC0120812F5F20833F
:1019A000DF91CF910895CF93DF93FC01A085B1859E
:1019B000C281D381848195819D838C83C481D581AB
:1019C000828193819B838A8311968D919C9112973A
:1019D000E817F90731F48481958112969C938E93D0
:1019E0001197118610868C9181508C93DF91CF9145
:1019F000089531E1FC013083319722E22083319751
:101A0000A3E3A0833197608331977083319710826D
:101A100031971082319760E8608331971082319757
:101A2000108231971082319762E06083319763E0D2
:101A30006083319764E06083319765E0608331971C
:101A400066E06083319767E06083319768E0608388
:101A5000319769E06083319760E16083319730832B
:101A6000319732E13083319733E13083319734E17C
:101A70003083319735E13083319736E130833197C8
:101A800037E13083319738E13083319739E1308362
:101A9000319730E23083319731E2308331972083C0
:101AA000319723E2208331974083319750833197D8
:101AB00026E22083319727E22083319728E2208392
:101AC000319729E22083319720E32083319721E366
:101AD00020838997089588EC90E09093B9168093BD
:101AE000B8169093BB168093BA1684E08093890051
:101AF00081EE809388008BE080938100EFE6F0E038
:101B0000808182608083A0915416B0915516CD914A
:101B1000CDBFDD91DEBFFF91EF91DF91CF91BF91FE
:101B2000AF919F918F917F916F915F914F913F9175
:101B30002F911F910F91FF90EF90DF90CF90BF906A
:101B4000AF909F908F907F906F905F904F903F905D
:101B50002F901F900F900CBE0F900BBE0F900FBEDA
:101B60000F90089581E008950F920FB6F8940F92A8
:101B70000BB60F920CB60F921F9211242F923F9228
:101B80004F925F926F927F928F929F92AF92BF928D
:101B9000CF92DF92EF92FF920F931F932F933F9379
:101BA0004F935F936F937F938F939F93AF93BF9365
:101BB000CF93DF93EF93FF93A0915416B0915516F6
:101BC0000DB60D920EB60D920E949E19A09154165C
:101BD000B0915516CD91CDBFDD91DEBFFF91EF9154
:101BE000DF91CF91BF91AF919F918F917F916F9135
:101BF0005F914F913F912F911F910F91FF90EF9027
:101C0000DF90CF90BF90AF909F908F907F906F901C
:101C10005F904F903F902F901F900F900CBE0F90B1
:101C20000BBE0F900FBE0F9008950F920FB6F89451
:101C30000F920BB60F920CB60F921F9211242F9297
:101C40003F924F925F926F927F928F929F92AF924C
:101C5000BF92CF92DF92EF92FF920F931F932F9339
:101C60003F934F935F936F937F938F939F93AF9324
:101C7000BF93CF93DF93EF93FF93A0915416B0914E
:101C800055160DB60D920EB60D9213BE8091BA1672
:101C90009091BB1601979093BB168093BA16892B2F
:101CA00051F40E9415028091B8169091B916909344
:101CB000BB168093BA160E94C51881110E949E1906
:101CC000A0915416B0915516CD91CDBFDD91DEBFD8
:101CD000FF91EF91DF91CF91BF91AF919F918F9144
:101CE0007F916F915F914F913F912F911F910F9134
:101CF000FF90EF90DF90CF90BF90AF909F908F902C
:101D00007F906F905F904F903F902F901F900F901B
:101D10000CBE0F900BBE0F900FBE0F90089585DF85
:101D200018950F931F93CF93DF93082F162F6623D9
:101D300009F438C0869FC001112480969ADDEC0119
:101D4000009721F436C0D983C88303C04F96998386
:101D500088830B8F1C8F0FB6F8940F92488159819E
:101D60002C8D30E06B8D629FC001639F900D11241C
:101D7000BA01680F791F7B836A831A8E5D834C8357
:101D8000821B930B840F951F9F838E838FEF8D8F04
:101D90008E8FCE010896A3DDCE014196A0DD0F9077
:101DA0000FBE07C08FE190E064DDEC01892B09F0E4
:101DB000CACFCE01DF91CF911F910F9108956F92FD
:101DC0007F928F929F92AF92BF92CF92DF92EF92CB
:101DD000FF920F931F93CF93DF9300D01F921F9218
:101DE000CDB7DEB78C015B015D834C83722E812CF5
:101DF0006624639499249A947C0188E0E80EF11C8F
:101E00006801E1E1CE0ED11C0FB6F8940F92F801F3
:101E1000928D838D981720F0F2E07F126EC079C109
:101E2000F801448D411115C0F80180819181892B01
:101E300009F075C1828193810E945A1BF8011382B7
:101E40001282928D9F5F928F9189992309F44FC0DE
:101E500046C071101AC050E0B501F8018481958127
:101E60000E942722F801248D84819581820F911D83
:101E700095838483228133818217930708F44FC1AD
:101E800080819181958384834AC150E0B501F80136
:101E9000868197810E942722F801848D90E0919598
:101EA0008195910926813781280F391F3783268331
:101EB000408151812417350730F422813381820F0C
:101EC000931F97838683F2E07F1229C1F801828DE8
:101ED000882309F424C1828D8150828F20C1C801DA
:101EE00041960E94661A813021F43EDE02C08111C3
:101EF0003BDE0F900FBE81E01AC18C819D81892B42
:101F000021F40F900FBE80E012C1811005C0CE01F8
:101F100001960E94AE1A862C0F900FBEDCD70FB62A
:101F2000F8940F92F801858D8F3F09F4158EF80112
:101F3000868D8F3F09F4168E0F900FBEBE016C5F29
:101F40007F4FCE0101960E94B91A811194C00FB63D
:101F5000F8940F92F801928D838D0F900FBE981315
:101F600049C06C817D81C7010E940B1A0FB6F8949D
:101F70000F92F801868D1816ACF48189811105C085
:101F800011C0F8018189882369F0C6010E94661A90
:101F900081110E94F41AF801868D8150868F868DFA
:101FA00018167CF3F801968E0F900FBE0FB6F894BA
:101FB0000F92858D1816ACF48085811105C011C073
:101FC000F8018085882369F0C7010E94661A811193
:101FD0000E94F41AF801858D8150858F858D181621
:101FE0007CF3F801958E0F900FBE7BD781110CCF3B
:101FF000BBDD0ACF0FB6F8940F92F801868D181644
:10200000ACF48189811105C011C0F8018189882350
:1020100069F0C6010E94661A81110E94F41AF80143
:10202000868D8150868F868D18167CF3F801968EEA
:102030000F900FBE0FB6F8940F92858D1816ACF462
:102040008085811105C011C0F8018085882369F061
:10205000C7010E94661A81110E94F41AF801858D49
:102060008150858F858D18167CF3F801958E0F9021
:102070000FBE37D7C9CE0FB6F8940F92F801868DF0
:102080001816D4F48189811106C016C0F80181891F
:10209000811105C011C07801F1E1EF0EF11CC701FB
:1020A0000E94661A81110E94F41AF801868D8150EF
:1020B000868F868D181654F38FEFF801868F0F9058
:1020C0000FBE0FB6F8940F92858D1816D4F4808544
:1020D000811106C016C0F8018085811105C011C0AC
:1020E0007801F8E0EF0EF11CC7010E94661A811119
:1020F0000E94F41AF801858D8150858F858D181600
:1021000054F38FEFF801858F0F900FBEEAD680E071
:102110000EC0F801448D442309F486CEB6CEF801F2
:10212000828D8F5F828F81898111D9CEE2CE0F900F
:102130000F900F900F900F90DF91CF911F910F9103
:10214000FF90EF90DF90CF90BF90AF909F908F90D7
:102150007F906F9008959F92AF92BF92CF92DF923F
:10216000EF92FF920F931F93CF93DF9300D01F92B4
:102170001F92CDB7DEB78C017D836C83A12C99248F
:102180009394BB24BA947C0188E0E80EF11C6801AA
:10219000E1E1CE0ED11C0FB6F8940F92F801928DAA
:1021A000838D981700F580819181892B09F027C1D3
:1021B000828193810E945A1BF80113821282928DB0
:1021C0009F5F928F9189992341F0C80141960E94A7
:1021D000661A813021F4C8DC02C08111C5DC0F9081
:1021E0000FBE81E014C18C819D81892B21F40F9059
:1021F0000FBE80E00CC1A11005C0CE0101960E9467
:10220000AE1AA92C0F900FBE66D60FB6F8940F9297
:10221000F801858D8F3F09F4158EF801868D8F3F6B
:1022200009F4168E0F900FBEBE016C5F7F4FCE017A
:1022300001960E94B91A811194C00FB6F8940F92BA
:10224000F801928D838D0F900FBE981349C06C8159
:102250007D81C7010E940B1A0FB6F8940F92F80106
:10226000868D1816ACF48189811105C011C0F80162
:102270008189882369F0C6010E94661A81110E9433
:10228000F41AF801868D8150868F868D18167CF39E
:10229000F801B68E0F900FBE0FB6F8940F92858D91
:1022A0001816ACF48085811105C011C0F801808535
:1022B000882369F0C7010E94661A81110E94F41AEE
:1022C000F801858D8150858F858D18167CF3F80176
:1022D000B58E0F900FBE05D681115DCF45DC5BCF6B
:1022E0000FB6F8940F92F801868D1816ACF4818918
:1022F000811105C011C0F8018189882369F0C601E8
:102300000E94661A81110E94F41AF801868D81508C
:10231000868F868D18167CF3F801B68E0F900FBE4F
:102320000FB6F8940F92858D1816ACF48085811144
:1023300005C011C0F8018085882369F0C7010E949B
:10234000661A81110E94F41AF801858D8150858FDB
:10235000858D18167CF3F801B58E0F900FBEC1D590
:102360001ACF0FB6F8940F92F801868D1816D4F490
:102370008189811106C016C0F8018189811105C0CB
:1023800011C07801F1E1EF0EF11CC7010E94661A3D
:1023900081110E94F41AF801868D8150868F868DF6
:1023A000181654F38FEFF801868F0F900FBE0FB6FB
:1023B000F8940F92858D1816D4F48085811106C08B
:1023C00016C0F8018085811105C011C07801F8E0C0
:1023D000EF0EF11CC7010E94661A81110E94F41AC7
:1023E000F801858D8150858F858D181654F38FEFF8
:1023F000F801858F0F900FBE74D580E008C0F801FA
:10240000828D8F5F828F81898111DFCEE8CE0F9020
:102410000F900F900F900F90DF91CF911F910F9120
:10242000FF90EF90DF90CF90BF90AF909F90089576
:10243000CF93DF93FC01928D838D9817D0F4828D1A
:102440008F5F828F868D8F3F79F48189882399F001
:10245000EB01CF0141960E94661A882371F0209704
:1024600071F081E088830CC0868D8F5F868F81E05C
:1024700007C080E005C081E003C081E001C081E0C9
:10248000DF91CF9108956F927F928F929F92AF923A
:10249000BF92CF92DF92EF92FF920F931F93CF9351
:1024A000DF9300D01F921F92CDB7DEB78C015B0186
:1024B0005D834C83622E812C7724739499249A94A3
:1024C0006C0188E0C80ED11C7801E1E1EE0EF11C30
:1024D0000FB6F8940F92F801828D882309F443C057
:1024E000E680F780448D4423A9F050E0C701840FB3
:1024F000951F97838683228133818217930720F06B
:102500008081918197838683F80166817781C501F7
:102510000E942722611018C0F801828D8150828F9D
:1025200080819181892B29F40E949A1BF801938361
:102530008283F8018085882391F0C8010896C6D768
:10254000813069F411DB0BC0F801F782E6828189E2
:10255000882329F0C8014196B9D7811105DB0F9076
:102560000FBE81E008C18C819D81892B21F40F90E1
:102570000FBE80E000C1811004C0CE010196EED7ED
:10258000872C0F900FBEA7D40FB6F8940F92F801C6
:10259000858D8F3F09F4158EF801868D8F3F09F4E4
:1025A000168E0F900FBEBE016C5F7F4FCE0101965D
:1025B000E0D7811197C00FB6F8940F92F801828D81
:1025C0000F900FBE811151C080819181892B49F4F8
:1025D0000FB6F8940F92828193810E94F81A0F909F
:1025E0000FBE6C817D81C70116D70FB6F8940F928C
:1025F000F801868D18169CF48189811105C00FC0E1
:10260000F8018189882359F0C70160D78111ECD77F
:10261000F801868D8150868F868D18168CF3F8010F
:10262000968E0F900FBE0FB6F8940F92858D1816E8
:102630009CF48085811105C00FC0F8018085882336
:1026400059F0C60143D78111CFD7F801858D81504C
:10265000858F858D18168CF3F801958E0F900FBE1F
:1026600040D4811135CF80DA33CF0FB6F8940F9272
:10267000F801868D18169CF48189811105C00FC060
:10268000F8018189882359F0C70120D78111ACD77F
:10269000F801868D8150868F868D18168CF3F8018F
:1026A000968E0F900FBE0FB6F8940F92858D181668
:1026B0009CF48085811105C00FC0F80180858823B6
:1026C00059F0C60103D781118FD7F801858D81504C
:1026D000858F858D18168CF3F801958E0F900FBE9F
:1026E00000D4F6CE0FB6F8940F92F801868D181626
:1026F000C4F48189811106C014C0F8018189811157
:1027000005C00FC07801F1E1EF0EF11CC701DED664
:1027100081116AD7F801868D8150868F868D1816B3
:1027200064F38FEFF801868F0F900FBE0FB6F89409
:102730000F92858D1816C4F48085811106C014C0CF
:10274000F8018085811105C00FC07801F8E0EF0E17
:10275000F11CC701BBD6811147D7F801858D815087
:10276000858F858D181664F38FEFF801858F0F9094
:102770000FBEB7D380E00F900F900F900F900F9087
:10278000DF91CF911F910F91FF90EF90DF90CF904D
:10279000BF90AF909F908F907F906F9008954F92D1
:1027A0005F926F927F928F929F92AF92BF92CF92E1
:1027B000DF92EF92FF920F931F93CF93DF934C0121
:1027C000EB015A012901C114D10431F4CA0151D8D5
:1027D0006C01892B09F4E1C088E290E04AD83C0101
:1027E0000097B9F0FC01D08EC78AA50165EA70E0B8
:1027F000C6010E943022F1E0AF1AB108F3018789C7
:10280000908DA80EB91E8881818F8881811104C0A6
:1028100013C0C60163D8C1C0D3015A96FE013196D8
:102820009E01285F3F4FEF0181918D93888188231E
:1028300019F02E173F07B9F7F30110A2102F04303B
:1028400008F013E0F301168B11A312A2E301229604
:10285000CE0153D8C3010C9650D8F301718660861F
:1028600084E090E0811B910995878487738A628A4E
:1028700013A214A215A216A217A2A201B401C501A7
:10288000B8D8F30191838083E114F10419F0F701C2
:10289000718260820FB6F8940F928091FD158F5F60
:1028A0008093FD158091541690915516892BB1F5A2
:1028B00070925516609254168091FD15813009F082
:1028C0003CC080E396E10BD889E396E108D882E426
:1028D00096E105D88BE496E102D887E296E10E9462
:1028E0006F0C8EE196E10E946F0C81E196E10E94EF
:1028F0006F0C88E096E10E946F0C8EEF95E10E94CC
:102900006F0C87E296E190931D1680931C168EE162
:1029100096E190931B1680931A160FC08091F915BB
:1029200081110BC0E0915416F09155168689081755
:1029300020F070925516609254168091F5158F5FB5
:102940008093F515F30186899091FA15981710F484
:102950008093FA1590E09C01220F331F220F331F42
:10296000220F331F820F931FBE01805D994E0E947C
:10297000810C0F900FBE8091F915882351F0E091E2
:102980005416F09155168689801728F4EDD881E009
:1029900005C081E003C081E001C08FEFDF91CF91DE
:1029A0001F910F91FF90EF90DF90CF90BF90AF906D
:1029B0009F908F907F906F905F904F9008959F921F
:1029C000AF92BF92CF92DF92EF92FF920F931F933D
:1029D000CF93DF93009709F47EC12091F2152F5F0A
:1029E0002093F215C091FB15D091FC15C80FD91F8B
:1029F000809154169091551602960E94D30CE09146
:102A00005416F0915516D383C2838091FB15909193
:102A1000FC15C817D90768F46091541670915516C3
:102A200080911A1690911B166E5F7F4F0E94A20C28
:102A300017C0609154167091551680911C16909194
:102A40001D166E5F7F4F0E94A20C8091F31590912E
:102A5000F415C817D90720F4D093F415C093F315D3
:102A60000FB6F8940F928091F21581508093F21571
:102A70008091F215811128C18091FD15811133C01B
:102A800026C1D7011596ED91FC911697C681D78185
:102A9000CE010C960E94D30C8E010E5F1F4FC80111
:102AA0000E94D30C8E899091FA15981710F4809398
:102AB000FA1590E09C01220F331F220F331F220FC3
:102AC000331F820F931FB801805D994E0E94810CC5
:102AD000E0915416F09155169E898689981758F002
:102AE000D092F71508C00F2EF1E1EF2EF6E1FF2E80
:102AF000F02DDD24D394F70180818111C2CF809124
:102B0000F815882309F4D8C08091F815882309F4B2
:102B1000D3C0912CBB24B394CC24CA94DC2C8091D8
:102B2000F2158111AFC08091FB159091FC150196B3
:102B30009093FC158093FB15E090FB15F090FC152D
:102B4000E114F10489F580911C1690911D162091D5
:102B50001A1630911B1630931D1620931C16909355
:102B60001B1680931A168091F6158F5F8093F615C9
:102B7000E0911C16F0911D168081811105C0D09244
:102B8000F415C092F31510C0E0911C16F0911D16BB
:102B90000580F681E02D0680F781E02D828193810A
:102BA0009093F4158093F3158091F3159091F4159B
:102BB000E816F90610F4A92C4FC0A92CE0911C16B8
:102BC000F0911D168081811105C0D092F415C0923C
:102BD000F31542C0E0911C16F0911D160580F68198
:102BE000E02DC681D7818A819B81E816F90628F4F9
:102BF0009093F4158093F3152FC08E010E5F1F4F35
:102C0000C8010E94D30C8C899D89892B21F0CE01AB
:102C10000C960E94D30C8E899091FA15981710F497
:102C20008093FA1590E09C01220F331F220F331F6F
:102C3000220F331F820F931FB801805D994E0E94AF
:102C4000810CE0915416F09155169E89868998174B
:102C500008F4B4CFAB2CB2CFE0915416F0915516D6
:102C6000868990E0FC01EE0FFF1FEE0FFF1FEE0FB5
:102C7000FF1F8E0F9F1FFC01E05DF94E80818230A7
:102C800068F50AC08091F8158F5F8093F8158091E0
:102C9000F715882341F005C08091F715811101C017
:102CA000A110B092F7158091F81581508093F81516
:102CB0008091F815811133CF8091F715813031F46F
:102CC0000E94B40D81E003C080E001C080E00F905D
:102CD0000FBE811106C00E94B40D03C08091F7158C
:102CE000E0CFDF91CF911F910F91FF90EF90DF9098
:102CF000CF90BF90AF909F900895EF92FF920F9367
:102D00001F93CF93DF9384E690E00E94390C8C01EF
:102D1000892B09F4D9C088E290E00E94390CEC01BB
:102D2000892BB1F0188F0F8B44E650E065EA70E014
:102D3000C8010E9430220F89188D0D591F4F89E458
:102D4000898FE7EBF3E0DE015A962EEB33E004C007
:102D5000C8010E946E0CB8C081918D93882319F030
:102D6000E217F307C9F718A21E8A19A21AA27E0158
:102D700082E0E80EF11CC7010E947D0CCE010C968A
:102D80000E947D0CD987C88784E090E09D878C875E
:102D9000DB8BCA8B1BA21CA21DA21EA21FA240E09D
:102DA00050E062E870E0C8010E94F90C99838883C2
:102DB0000FB6F8940F928091FD158F5F8093FD15EB
:102DC0008091541690915516892BD1F5D0935516B4
:102DD000C09354168091FD15813009F040C080E306
:102DE00096E10E946F0C89E396E10E946F0C82E4E9
:102DF00096E10E946F0C8BE496E10E946F0C87E2D3
:102E000096E10E946F0C8EE196E10E946F0C81E1C9
:102E100096E10E946F0C88E096E10E946F0C8EEFA5
:102E200095E10E946F0C87E296E190931D168093C6
:102E30001C168EE196E190931B1680931A160FC014
:102E40008091F91581110BC0E0915416F09155163F
:102E50008689811104C0D0935516C0935416809171
:102E6000F5158F5F8093F5158E899091FA15981757
:102E700010F48093FA1590E09C01220F331F220F6B
:102E8000331F220F331F820F931FB701805D994EAE
:102E90000E94810C0F900FBE8091F915882321F0BC
:102EA0008091541690915516F8948FEF9FEF909360
:102EB000F4158093F31581E08093F9151092FC15B9
:102EC0001092FB150E946B0DDF91CF911F910F9116
:102ED000FF90EF9008958091F2158F5F8093F21527
:102EE00008959F92AF92BF92CF92DF92EF92FF929E
:102EF0000F931F93CF93DF930FB6F8940F928091A7
:102F0000F21581508093F2158091F215811128C13C
:102F10008091FD15811133C026C1D7011596ED9121
:102F2000FC911697C681D781CE010C960E94D30CD6
:102F30008E010E5F1F4FC8010E94D30C8E899091A5
:102F4000FA15981710F48093FA1590E09C01220F5F
:102F5000331F220F331F220F331F820F931FB8011D
:102F6000805D994E0E94810CE0915416F0915516A7
:102F70009E898689981758F0D092F71508C00F2EB1
:102F8000F1E1EF2EF6E1FF2EF02DDD24D394F701D1
:102F900080818111C2CF8091F815882309F4D8C0AF
:102FA0008091F815882309F4D3C0912CBB24B394E5
:102FB000CC24CA94DC2C8091F2158111AFC0809191
:102FC000FB159091FC1501969093FC158093FB15D1
:102FD000E090FB15F090FC15E114F10489F5809167
:102FE0001C1690911D1620911A1630911B163093C5
:102FF0001D1620931C1690931B1680931A16809111
:10300000F6158F5F8093F615E0911C16F0911D1652
:103010008081811105C0D092F415C092F31510C0C3
:10302000E0911C16F0911D160580F681E02D0680BA
:10303000F781E02D828193819093F4158093F315AD
:103040008091F3159091F415E816F90610F4A92C67
:103050004FC0A92CE0911C16F0911D1680818111A2
:1030600005C0D092F415C092F31542C0E0911C1631
:10307000F0911D160580F681E02DC681D7818A81E9
:103080009B81E816F90628F49093F4158093F315C4
:103090002FC08E010E5F1F4FC8010E94D30C8C8978
:1030A0009D89892B21F0CE010C960E94D30C8E892C
:1030B0009091FA15981710F48093FA1590E09C01FE
:1030C000220F331F220F331F220F331F820F931F34
:1030D000B801805D994E0E94810CE0915416F091E8
:1030E00055169E898689981708F4B4CFAB2CB2CFB9
:1030F000E0915416F0915516868990E0FC01EE0F90
:10310000FF1FEE0FFF1FEE0FFF1F8E0F9F1FFC0113
:10311000E05DF94E8081823048F50AC08091F81553
:103120008F5F8093F8158091F715811106C007C055
:103130008091F715811101C0A110B092F71580910F
:10314000F81581508093F8158091F815811133CFCF
:103150008091F715813031F40E94B40D81E003C0F5
:1031600080E001C080E00F900FBE03C08091F71592
:10317000E4CFDF91CF911F910F91FF90EF90DF90FF
:10318000CF90BF90AF909F900895CF92DF92EF9233
:10319000FF920F931F93CF93DF938091F2158111CC
:1031A000B7C08091FB159091FC1501969093FC158A
:1031B0008093FB15E090FB15F090FC15E114F104F1
:1031C00099F580911C1690911D1620911A16309138
:1031D0001B1630931D1620931C1690931B1680937C
:1031E0001A168091F6158F5F8093F615E0911C16E4
:1031F000F0911D168081811107C08FEF9FEF909392
:10320000F4158093F31510C0E0911C16F0911D1673
:103210000580F681E02D0680F781E02D8281938183
:103220009093F4158093F3158091F3159091F41514
:10323000E816F90610F4D12C53C0D12CCC24C39439
:10324000E0911C16F0911D168081811107C08FEF4F
:103250009FEF9093F4158093F31542C0E0911C16F4
:10326000F0911D160580F681E02DC681D7818A81F7
:103270009B81E816F90628F49093F4158093F315D2
:103280002FC08E010E5F1F4FC8010E94D30C8C8986
:103290009D89892B21F0CE010C960E94D30C8E893A
:1032A0009091FA15981710F48093FA1590E09C010C
:1032B000220F331F220F331F220F331F820F931F42
:1032C000B801805D994E0E94810CE0915416F091F6
:1032D00055169E898689981708F4B2CFDC2CB0CF9A
:1032E000E0915416F0915516868990E0FC01EE0F9E
:1032F000FF1FEE0FFF1FEE0FFF1F8E0F9F1FFC0122
:10330000E05DF94E8081823048F0DD24D39406C020
:103310008091F8158F5F8093F815D12C8091F71567
:10332000882311F0DD24D3948D2DDF91CF911F914F
:103330000F91FF90EF90DF90CF9008958091F2155C
:10334000882321F081E08093F71508951092F715F6
:103350008091FA1590E0FC01EE0FFF1FEE0FFF1FAA
:10336000EE0FFF1F8E0F9F1FFC01E05DF94E808165
:10337000811117C08091FA1581508093FA158091C0
:10338000FA1590E0FC01EE0FFF1FEE0FFF1FEE0F8E
:10339000FF1F8E0F9F1FFC01E05DF94E8081882387
:1033A00049F38091FA1590E09C01220F331F220F00
:1033B000331F220F331F280F391FD901A05DB94ECB
:1033C0001196ED91FC9112970280F381E02D1296F7
:1033D000FC93EE9311972D5C394EE217F30729F415
:1033E00022813381FD0132832183FC01EE0FFF1F17
:1033F000EE0FFF1FEE0FFF1F8E0F9F1FFC01E05D02
:10340000F94E0180F281E02D8681978190935516C7
:10341000809354160895CF93DF93EB016091541677
:1034200070915516645F7F4F0E94A20C80915416D4
:103430009091551602960E94D30CCF3F8FEFD8077C
:1034400059F460915416709155166E5F7F4F8EEF50
:1034500095E10E94810C37C08091FB159091FC157D
:10346000C80FD91FE0915416F0915516D383C2832B
:103470008091FB159091FC15C817D90768F46091ED
:1034800054167091551680911A1690911B166E5F06
:103490007F4F0E94A20C17C0609154167091551670
:1034A00080911C1690911D166E5F7F4F0E94A20C9A
:1034B0008091F3159091F415C817D90720F4D09393
:1034C000F415C093F315DF91CF9108950F931F93D7
:1034D000CF93DF93DC011596ED91FC911697C68191
:1034E000D7818E01045F1F4FC8010E94D30C8091C9
:1034F000F21581111CC00A501109C8010E94D30C99
:103500008E899091FA15981710F48093FA1590E02F
:103510009C01220F331F220F331F220F331F820FF4
:10352000931FB801805D994E0E94810C05C0B801BF
:1035300081E196E10E94810CE0915416F0915516BC
:103540009E898689891720F481E08093F71501C050
:1035500080E0DF91CF911F910F9108952091F61592
:10356000FC0120832091FB153091FC1532832183CF
:103570000895FC010FB6F8940F922091FB1530913D
:10358000FC15DB018D919C918F3FBFEF9B0721F1D3
:103590004091F6155081541729F04181528124172A
:1035A0003507E0F441815281D901A41BB50BA8175E
:1035B000B907B0F4421B530B840F951FDB018D93A9
:1035C0009C938091F61580838091FB159091FC155A
:1035D0009283818380E005C080E003C081E001C068
:1035E00081E00F900FBE089581E08093F715089554
:1035F0000F931F93CF93DF93FC01892B09F455C0E0
:103600002689A0915416B091551656968C9128177C
:1036100008F04BC084859585992364F0A0915416D9
:10362000B091551656963C9184E090E0831B910929
:103630009587848730E0C901880F991F880F991FEB
:10364000880F991F280F391F205D394E8285938579
:103650008217930719F58F01EF012296CE010E9480
:10366000D30CE0915416F09155168689F801868B9B
:103670009091FA15981710F48093FA1590E09C0138
:10368000220F331F220F331F220F331F820F931F6E
:10369000BE01805D994E0E94810C07C0A091541616
:1036A000B091551656968C91868BDF91CF911F91D4
:1036B0000F9108950F931F93CF93DF93FC01892BF4
:1036C00079F182A1815082A3268991A1291751F114
:1036D00081112AC0EF018F010E5F1F4FC8010E94A8
:1036E000D30C89A18E8B24E030E0281B31093D8763
:1036F0002C879091FA15981710F48093FA1590E0A2
:103700009C01220F331F220F331F220F331F820F02
:10371000931FB801805D994E0E94810C81E005C025
:1037200080E003C080E001C080E0DF91CF911F9175
:103730000F9108958091541690915516892B39F068
:10374000E0915416F091551682A18F5F82A380916B
:103750005416909155160895CF93DF93DC010FB660
:10376000F8940F921D962D913C911E970F900FBECD
:1037700057968D919C91589728173907F1F0FD01C4
:103780003D96C281D3816883828193810196938320
:103790008283208531858217930721F48681978162
:1037A000938382830FB6F8940F9280819181019662
:1037B000918380830F900FBE37C02FEF8FE891E089
:1037C000215080409040E1F700C000000FB6F8940F
:1037D0000F921D962D913C911E970F900FBE5796FC
:1037E0008D919C9158972817390709F444C0FD0121
:1037F0003D96C281D38168838281938101969383B0
:103800008283208531858217930721F486819781F1
:10381000938382830FB6F8940F92808191810196F1
:10382000918380830F900FBE8C9190E0883091053A
:1038300020F5FC018827EE58FF4F8F4FF1C5E1ECD2
:10384000F0E080818062808381E018C0E9ECF0E0E4
:1038500080818062808381E011C0E1EDF0E08081B1
:103860008062808381E00AC0E1E3F1E080818062D0
:10387000808381E003C080E001C081E0DF91CF91CF
:1038800008957F928F929F92AF92BF92CF92DF92D4
:10389000EF92FF920F931F93CF93DF93CDB7DEB7D5
:1038A000A2970FB6F894DEBF0FBECDBF6C01762E87
:1038B00049015A01C7010E94390C0097A9F0FE0185
:1038C00032960FB6F8940F921182108293838283FE
:1038D00095838483978386838E0D9F1D9187808730
:1038E000F386E2860F900FBEC8010E94390C009744
:1038F000A9F0FE013E960FB6F8940F921182108245
:10390000938382839583848397838683800F911F1B
:1039100091878087138702870F900FBEC8010E948E
:10392000390C9B8F8A8F79821D8F0C8F1E8E8F8E04
:1039300098A2A9A2BAA20FB6F8940F92898190E03A
:103940008830910508F0B1C1FC018827E658FF4F87
:103950008F4F66C5D501C401975FA24CBF4FBC0114
:10396000CD01660F771F881F991F660F771F881F6D
:10397000991F95018401000F111F221F331F000F93
:10398000111F221F331FA9019801220F331F441F4B
:10399000551F08D5215031093093C5002093C4002C
:1039A00082E08093C00088E98093C1008EE080931C
:1039B000C2007BC104EC10E0F801118210826A9A07
:1039C00080EC8093C20088E98093C100D501C401D6
:1039D00080589B47A14EBF4F880F991FAA1FBB1F3E
:1039E000880F991FAA1FBB1FBC01CD01660F771F4F
:1039F000881F991F880C991CAA1CBB1C880C991C39
:103A0000AA1CBB1CA5019401220F331F441F551F84
:103A1000220F331F441F551FC5D421503109F8010F
:103A20003183208342C1D501C401975FA24CBF4FAF
:103A3000BC01CD01660F771F881F991F660F771F86
:103A4000881F991F95018401000F111F221F331F2A
:103A5000000F111F221F331FA9019801220F331FCE
:103A6000441F551F9FD4215031093093CD0020931E
:103A7000CC0082E08093C80088E98093C9008EE082
:103A80008093CA0012C10CEC10E0F8011182108280
:103A9000559A80EC8093CA0088E98093C900D501CB
:103AA000C40180589B47A14EBF4F880F991FAA1F82
:103AB000BB1F880F991FAA1FBB1FBC01CD01660F3A
:103AC000771F881F991F880C991CAA1CBB1C880C87
:103AD000991CAA1CBB1CA5019401220F331F441F73
:103AE000551F220F331F441F551F5CD4215031092D
:103AF000F80131832083D9C0D501C401975FA24C5E
:103B0000BF4FBC01CD01660F771F881F991F660F3D
:103B1000771F881F991F95018401000F111F221F15
:103B2000331F000F111F221F331FA9019801220FFD
:103B3000331F441F551F36D4215031093093D5000F
:103B40002093D40082E08093D00088E98093D10054
:103B50008EE08093D200A9C004ED10E0F80111823C
:103B60001082E1E0F1E080818460808380EC8093CA
:103B7000D20088E98093D100D501C40180589B47C9
:103B8000A14EBF4F880F991FAA1FBB1F880F991FF7
:103B9000AA1FBB1FBC01CD01660F771F881F991F8D
:103BA000880C991CAA1CBB1C880C991CAA1CBB1C49
:103BB000A5019401220F331F441F551F220F331FED
:103BC000441F551FEFD321503109F8013183208361
:103BD0006CC0D501C401975FA24CBF4FBC01CD01A1
:103BE000660F771F881F991F660F771F881F991F01
:103BF00095018401000F111F221F331F000F111F99
:103C0000221F331FA9019801220F331F441F551F84
:103C1000C9D321503109309335012093340182E01A
:103C20008093300188E9809331018EE080933201E6
:103C30003CC004E311E0F80111821082E4E0F1E0FD
:103C400080818460808380EC8093320188E9809356
:103C50003101D501C40180589B47A14EBF4F880F49
:103C6000991FAA1FBB1F880F991FAA1FBB1FBC014A
:103C7000CD01660F771F881F991F880C991CAA1CFD
:103C8000BB1C880C991CAA1CBB1CA5019401220F0B
:103C9000331F441F551F220F331F441F551F82D34C
:103CA00021503109F801318320830F900FBE82E249
:103CB000FE013196D60101900D928A95E1F7C60179
:103CC000A2960FB6F894DEBF0FBECDBFDF91CF91A5
:103CD0001F910F91FF90EF90DF90CF90BF90AF902A
:103CE0009F908F907F9008951F920F920FB60F9222
:103CF00011240BB60F922F933F934F938F939F9363
:103D0000AF93BF93EF93FF938091C0008C7171F0DC
:103D10008091C00088230CF036C0A6ECB0E0E0EC47
:103D2000F0E08C9180818823E4F32DC04091C6009F
:103D30000FB6F8940F92E6E5F6E1218132810F90FB
:103D40000FBE8385948528173907E9F0E7E5F6E18A
:103D5000A281B3814C938281938101969383828364
:103D6000208531858217930721F48681978193837B
:103D700082830FB6F8940F9280819181019691838E
:103D800080830F900FBEFF91EF91BF91AF919F91F4
:103D90008F914F913F912F910F900BBE0F900FBEBF
:103DA0000F901F9018951F920F920FB60F9211242B
:103DB0000BB60F922F938F939F93AF93BF93EF9375
:103DC000FF930FB6F8940F9280916316909164164A
:103DD0000F900FBE892B31F4E1ECF0E080818F7DF4
:103DE00080831CC0E3E6F6E1A481B5812D91B58303
:103DF000A48380859185A817B90721F486819781CE
:103E0000958384830FB6F8940F92808191810197F6
:103E1000918380830F900FBE2093C600FF91EF9196
:103E2000BF91AF919F918F912F910F900BBE0F90EB
:103E30000FBE0F901F9018951F920F920FB60F9202
:103E400011240BB60F922F933F934F938F939F9311
:103E5000AF93BF93EF93FF938091C8008C7171F083
:103E60008091C80088230CF036C0AEECB0E0E8ECDE
:103E7000F0E08C9180818823E4F32DC04091CE0046
:103E80000FB6F8940F92E0E0F7E1218132810F90B4
:103E90000FBE8385948528173907E9F0E1E0F7E143
:103EA000A281B3814C938281938101969383828313
:103EB000208531858217930721F48681978193832A
:103EC00082830FB6F8940F9280819181019691833D
:103ED00080830F900FBEFF91EF91BF91AF919F91A3
:103EE0008F914F913F912F910F900BBE0F900FBE6E
:103EF0000F901F9018951F920F920FB60F921124DA
:103F00000BB60F922F938F939F93AF93BF93EF9323
:103F1000FF930FB6F8940F9280910D1790910E17A2
:103F20000F900FBE892B31F4E9ECF0E080818F7D9A
:103F300080831CC0EDE0F7E1A481B5812D91B583AC
:103F4000A48380859185A817B90721F4868197817C
:103F5000958384830FB6F8940F92808191810197A5
:103F6000918380830F900FBE2093CE00FF91EF913D
:103F7000BF91AF919F918F912F910F900BBE0F909A
:103F80000FBE0F901F9018951F920F920FB60F92B1
:103F900011240BB60F922F933F934F938F939F93C0
:103FA000AF93BF93EF93FF938091D0008C7171F02A
:103FB0008091D00088230CF036C0A6EDB0E0E0ED93
:103FC000F0E08C9180818823E4F32DC04091D600ED
:103FD0000FB6F8940F92ECEBF6E1218132810F904D
:103FE0000FBE8385948528173907E9F0EDEBF6E1DC
:103FF000A281B3814C9382819381019693838283C2
:10400000208531858217930721F4868197819383D8
:1040100082830FB6F8940F928081918101969183EB
:1040200080830F900FBEFF91EF91BF91AF919F9151
:104030008F914F913F912F910F900BBE0F900FBE1C
:104040000F901F9018951F920F920FB60F92112488
:104050000BB60F922F938F939F93AF93BF93EF93D2
:10406000FF930FB6F8940F928091C9169091CA16DB
:104070000F900FBE892B31F4E1EDF0E080818F7D50
:1040800080831CC0E9ECF6E1A481B5812D91B58354
:10409000A48380859185A817B90721F4868197812B
:1040A000958384830FB6F8940F9280819181019754
:1040B000918380830F900FBE2093D600FF91EF91E4
:1040C000BF91AF919F918F912F910F900BBE0F9049
:1040D0000FBE0F901F9018951F920F920FB60F9260
:1040E00011240BB60F922F933F934F938F939F936F
:1040F000AF93BF93EF93FF93809130018C7171F078
:104100008091300188230CF036C0A6E3B1E0E0E3F3
:10411000F1E08C9180818823E4F32DC04091360139
:104120000FB6F8940F92EEEDF6E1218132810F90F7
:104130000FBE8385948528173907E9F0EFEDF6E186
:10414000A281B3814C938281938101969383828370
:10415000208531858217930721F486819781938387
:1041600082830FB6F8940F9280819181019691839A
:1041700080830F900FBEFF91EF91BF91AF919F9100
:104180008F914F913F912F910F900BBE0F900FBECB
:104190000F901F9018951F920F920FB60F92112437
:1041A0000BB60F922F938F939F93AF93BF93EF9381
:1041B000FF930FB6F8940F928091EB169091EC1646
:1041C0000F900FBE892B31F4E1E3F1E080818F7D08
:1041D00080831CC0EBEEF6E1A481B5812D91B583FF
:1041E000A48380859185A817B90721F486819781DA
:1041F000958384830FB6F8940F9280819181019703
:10420000918380830F900FBE20933601FF91EF9131
:10421000BF91AF919F918F912F910F900BBE0F90F7
:104220000FBE0F901F90189504D06894B1118DC0E7
:10423000089570D088F09F5790F0B92F9927B75103
:10424000A0F0D1F0660F771F881F991F1AF0BA955A
:10425000C9F712C0B13081F077D0B1E0089574C0D1
:10426000672F782F8827B85F39F0B93FCCF3869550
:1042700077956795B395D9F73EF4909580957095AD
:1042800061957F4F8F4F9F4F0895E89409C097FB2A
:104290003EF490958095709561957F4F8F4F9F4F1D
:1042A0009923A9F0F92F96E9BB279395F695879561
:1042B00077956795B795F111F8CFFAF4BB0F11F424
:1042C00060FF1BC06F5F7F4F8F4F9F4F16C08823CB
:1042D00011F096E911C0772321F09EE8872F762F01
:1042E00005C0662371F096E8862F70E060E02AF042
:1042F0009A95660F771F881FDAF7880F969587952E
:1043000097F9089557FD9058440F551F59F05F3F96
:1043100071F04795880F97FB991F61F09F3F79F0E7
:1043200087950895121613061406551FF2CF469569
:10433000F1DF08C0161617061806991FF1CF8695EB
:104340007105610508940895E894BB2766277727CF
:10435000CB0197F90895AA1BBB1B51E107C0AA1F07
:10436000BB1FA617B70710F0A61BB70B881F991F16
:104370005A95A9F780959095BC01CD01089597FBBA
:10438000072E16F4009406D077FD08D0E4DF07FC72
:1043900005D03EF4909581959F4F08957095619555
:1043A0007F4F0895A1E21A2EAA1BBB1BFD010DC071
:1043B000AA1FBB1FEE1FFF1FA217B307E407F507D5
:1043C00020F0A21BB30BE40BF50B661F771F881FB1
:1043D000991F1A9469F760957095809590959B0147
:1043E000AC01BD01CF010895052E97FB16F4009492
:1043F0000FD057FD05D0D6DF07FC02D046F408C029
:1044000050954095309521953F4F4F4F5F4F089500
:1044100090958095709561957F4F8F4F9F4F089530
:10442000EE0FFF1F881F8BBF0790F691E02D1994A8
:10443000A29FB001B39FC001A39F700D811D1124E5
:10444000911DB29F700D811D1124911D0895FB01D6
:10445000DC0102C001900D9241505040D8F7089500
:10446000DC0101C06D9341505040E0F70895BB2737
:104470004A3031F4992322F4BDE2909581959F4F03
:1044800001C0BB27FB015527AA27880F991FAA1F28
:10449000A41710F0A41B83955051B9F7A05DAA335F
:1044A00008F0A95DA193009779F7B111B19311922A
:1044B000CB0126C2CF93DF93CDB7DEB7AE014A5F03
:1044C0005F4FFA0161917191AF0180912417909132
:1044D000251703D0DF91CF9108952F923F924F92ED
:1044E0005F926F927F928F929F92AF92BF92CF9284
:1044F000DF92EF92FF920F931F93CF93DF93CDB78D
:10450000DEB72B970FB6F894DEBF0FBECDBF6C01A0
:104510007B018A01FC0117821682838181FFBFC162
:10452000CE0101963C01F6019381F70193FD85913F
:1045300093FF81917F01882309F4ADC1853239F45D
:1045400093FD859193FF81917F01853221F4B6011E
:1045500090E0E6D1E8CF912C212C312CFFE1F3152E
:10456000D8F08B3279F038F4803279F08332A1F4CC
:10457000232D20611DC08D3261F0803369F4232D1D
:10458000216016C0832D8260382EE32DE4603E2E1C
:104590002AC0F32DF8601DC037FC2DC020ED280F78
:1045A0002A3040F08E32B9F436FC75C1232D2064D8
:1045B000322E19C036FE06C08AE0989E200D1124C6
:1045C000922E11C0EAE02E9E200D1124222EF32DF2
:1045D000F0623F2E08C08C3621F4832D8068382E7F
:1045E00002C0883641F4F70193FD859193FF8191D4
:1045F0007F018111B3CF982F9F7D9554933028F47C
:104600000C5F1F4F9FE399830DC0833631F08337D2
:1046100071F0833509F055C020C0F801808189838D
:104620000E5F1F4F88248394912C530112C02801E0
:10463000F2E04F0E511CF801A080B18036FE03C09D
:10464000692D70E002C06FEF7FEFC5014ED14C01C4
:104650008201F32DFF773F2E15C0280122E0420E84
:10466000511CF801A080B18036FE03C0692D70E0B6
:1046700002C06FEF7FEFC5012DD14C01F32DF06823
:104680003F2E820133FC19C0822D90E088169906D6
:10469000A0F4B60180E290E043D12A94F5CFF50171
:1046A00037FC859137FE81915F01B60190E038D1EA
:1046B00021102A9421E0821A91088114910479F73B
:1046C000E1C0843611F0893639F5F80137FE07C0AC
:1046D00060817181828193810C5F1F4F08C060816E
:1046E0007181072E000C880B990B0E5F1F4FF32D65
:1046F000FF763F2E97FF09C0909580957095619544
:104700007F4F8F4F9F4FF0683F2E2AE030E0A3018C
:1047100043D1882E861844C0853731F4232D2F7E4F
:10472000B22E2AE030E025C0932D997FB92E8F3626
:10473000C1F018F4883579F0AEC0803719F08837A9
:1047400021F0A9C0E92FE061BE2EB4FE0DC0FB2D03
:10475000F460BF2E09C034FE0AC0292F2660B22E95
:1047600006C028E030E005C020E130E002C020E1D2
:1047700032E0F801B7FE07C06081718182819381C8
:104780000C5F1F4F06C06081718180E090E00E5F7A
:104790001F4FA30101D1882E8618FB2DFF773F2ED6
:1047A00036FE0DC0232D2E7FA22E891458F434FE20
:1047B0000BC032FC09C0832D8E7EA82E05C0B82CFC
:1047C000A32C03C0B82C01C0B92CA4FE0FC0FE015D
:1047D000E80DF11D8081803321F49A2D997EA92E58
:1047E00009C0A2FE06C0B394B39404C08A2D867893
:1047F00009F0B394A3FC10C0A0FE06C0B21480F46C
:10480000280C922C9B180DC0B21458F4B60180E20B
:1048100090E086D0B394F8CFB21418F42B1802C0ED
:10482000982C212CA4FE0FC0B60180E390E078D034
:10483000A2FE16C0A1FC03C088E790E002C088E594
:1048400090E0B6010CC08A2D867851F0A1FE02C01E
:104850008BE201C080E2A7FC8DE2B60190E060D05F
:10486000891430F4B60180E390E05AD09A94F8CFDE
:104870008A94F301E80DF11D8081B60190E050D0DB
:104880008110F6CF222009F44ECEB60180E290E0EE
:1048900047D02A94F7CFF6018681978102C08FEF27
:1048A0009FEF2B960FB6F894DEBF0FBECDBFDF9102
:1048B000CF911F910F91FF90EF90DF90CF90BF901D
:1048C000AF909F908F907F906F905F904F903F90B0
:1048D0002F900895FC010590615070400110D8F7A9
:1048E000809590958E0F9F1F0895FC016150704038
:1048F00001900110D8F7809590958E0F9F1F089515
:10490000DC01FC01672F71917723E1F7329704C036
:104910007C916D9370836291AE17BF07C8F30895C1
:104920000F931F93CF93DF93FB01238121FD03C0DE
:104930008FEF9FEF2CC022FF16C046815781248144
:1049400035814217530744F4A081B1819D012F5F47
:104950003F4F318320838C93268137812F5F3F4FD8
:104960003783268314C08B01EC01FB010084F185A1
:10497000E02D1995892BE1F6D80116968D919C9121
:104980001797019617969C938E931697CE01DF91F9
:10499000CF911F910F910895FA01AA27283051F164
:1049A000203181F1E8946F936E7F6E5F7F4F8F4F60
:1049B0009F4FAF4FB1E03ED0B4E03CD0670F781FBF
:1049C000891F9A1FA11D680F791F8A1F911DA11DA4
:1049D0006A0F711D811D911DA11D20D009F46894DD
:1049E0003F912AE0269F11243019305D3193DEF685
:1049F000CF010895462F4770405D4193B3E00FD03B
:104A0000C9F7F6CF462F4F70405D4A3318F0495D25
:104A100031FD4052419302D0A9F7EACFB4E0A69508
:104A20009795879577956795BA95C9F7009761052A
:104A3000710508959B01AC010A2E06945795479580
:104A400037952795BA95C9F7620F731F841F951F75
:084A5000A01D0895F894FFCFAA
:104A5800050025620A256930312043004D61783D03
:104A6800256930340A4D696E3D2569303300417639
:104A7800653D256930320A2569303320432E2E2EB4
:104A88002569303420430055703D536574205469BE
:104A98006D650A446F776E3D536574204461746593
:104AA800005365742054696D650A25740053657454
:104AB80020446174650A2564005345542054494DC7
:104AC800450A486F7572733F200053455420544976
:104AD8004D450A4D696E757465733F200053455402
:104AE8002054494D450A5365636F6E64733F200037
:104AF80053455420444154450A596561723F20206A
:104B080020323030300053455420444154450A4D3A
:104B18006F6E74683F200053455420444154450A41
:104B28004461793F2000445331385832305F737400
:104B38006172745F6D6561733A2053686F72742097
:104B480043697263756974210D00445331385832D2
:104B5800305F77726974655F7363726174636870DC
:104B680061643A2053686F7274204369726375698F
:104B780074210D00445331385832305F72656164D6
:104B88005F736372617463687061643A2053686F1D
:104B980072742043697263756974210D004453313E
:104BA800385832305F636F70795F73637261746312
:104BB800687061643A2053686F7274204369726345
:104BC800756974210D00445331385832305F72656D
:104BD80063616C6C5F45323A2074696D656F7574FA
:104BE800210D00445331385832305F726563616C6F
:104BF8006C5F45323A2053686F7274204369726360
:0C4C0800756974210D0049444C45000002
:00000001FF
